:04000000803108281B
:100008007E1480317E10090080310A28B0308400C7
:10001800003085002930FE000030FF009631682648
:10002800803120308400013085001030FE0000301F
:10003800FF00963168268031A030840001308500A9
:100048001E30FE000030FF009631682680317E1099
:1000580020008831192820006203031D3428352820
:100068004B2860081F39003A031D3B283C284B28C1
:100078002100BA17033020006106031D44284528D3
:1000880049282100D001D00A4B282100D0012000A6
:100098006208031D50285128952960081F39023A23
:1000A800031D57285828952964080F39003A031961
:1000B8005E285F28952964080F392100DF00043085
:1000C8005F02031868286928952920305506031D02
:1000D8006E286F289529BA172000E41B7428752804
:1000E8008E2864080F390907A03E86000130870072
:1000F800403F2100E400413FE500200064080F393B
:10010800AC3E86000130870001082100DF005F084F
:10011800E300A52864080F390907B03E8600870167
:10012800403F2100E400413FE500200064080F390A
:10013800B03E86000130870001082100DF005F081B
:10014800E3006318A828A928B428FB30DF00FF3093
:10015800E00064085F05E40065086005E500BA286A
:1001680004306404E40000306504E5002000E41B6A
:10017800BE28BF28CC2864080F390907A03E86008E
:100188000130870021006408C03F6508C13FD728B7
:1001980064080F390907B03E86008701210064080A
:1001A800C03F6508C13F033020006106031DDD28FC
:1001B800DE28072921006408860065088700811F5A
:1001C800E628E728FB282000E41BEB28EC28F42885
:1001D80064080F39AC3E8600013087008114FB2883
:1001E80064080F39B03E8600013087008114210071
:1001F800640886006508870001156408860065089C
:10020800870081179529043021006406E400003036
:100218006506E5006408860065088700811F1529C2
:10022800162933297F30DF006408860065088700B7
:100238005F08810564088600650887000117053096
:10024800D9000030DA006508DC006408DB00023001
:10025800DD000030DE0088319220803138296408C2
:100268008600650887000117043021006406E40051
:1002780000306506E500E318422943294B29640844
:10028800860065088700811F4A294B2978292000A4
:10029800E41B4F295029582964080F39AC3E8600C1
:1002A8000130870081105F2964080F39B03E86004D
:1002B8000130870081103B302100DF006408860090
:1002C800650887005F0881050530D9000030DA002D
:1002D8006508DC006408DB000230DD000030DE0069
:1002E80088319220803180293B30DF006408860005
:1002F800650887005F088105200064080F39983E6B
:100308002100DF00E0010E30E03D5F08E1006008F9
:10031800E200FE30DF0061088600620887005F089F
:100328008105080020008E11B0308600213087003A
:10033800240016009100141CFE33110816009100C9
:10034800141CFE33110816009100141CFE3311080A
:1003580016009100141CFE33110816009100141C9D
:10036800FE33110816009100141CFE331108160004
:100378009100141CFE33110816009100141CFE3362
:10038800110816009100141CFE3311081600910084
:10039800141CFE33110816009100141CFE331108BA
:1003A80016009100141CFE33110816009100141C4D
:1003B800FE33110816009100141CFE3311081600B4
:1003C8009100141CFE33110816009100141CFE3312
:1003D800110816009100141CFE3311081600910034
:1003E800141CFE33110816009100141CFE3311086A
:1003F80016009100141CFE33110816009100141CFD
:10040800FE33110816009100141CFE331108160063
:100418009100141CFE33110816009100141CFE33C1
:10042800110816009100141CFE33110816009100E3
:10043800141CFE33110816009100141CFE33110819
:1004480016009100141CFE33110816009100141CAC
:10045800FE33110816009100141CFE331108160013
:100468009100141CFE33110816009100141CFE3371
:10047800110816009100141CFE3311081600910093
:10048800141CFE33110816009100141CFE331108C9
:1004980016009100141CFE33110816009100141C5C
:1004A800FE33110816009100141CFE3311081600C3
:1004B8009100141CFE33110816009100141CFE3321
:1004C800110816009100141CFE3311081600910043
:1004D800141CFE33110816009100141CFE33110879
:1004E80016009100141CFE33110816009100141C0C
:1004F800FE33110816009100141CFE331108160073
:100508009100141CFE33110816009100141CFE33D0
:10051800110816009100141CFE33110816009100F2
:10052800141CFE33110816009100141CFE33110828
:1005380016009100141CFE33110816009100141CBB
:10054800FE33110816009100141CFE331108160022
:100558009100141CFE33110816009100141CFE3380
:10056800110816009100141CFE33110816009100A2
:10057800141CFE33110816009100141CFE331108D8
:1005880016009100141CFE33110816009100141C6B
:10059800FE33110816009100141CFE3311081600D2
:1005A8009100141CFE33110816009100141CFE3330
:1005B8001108203024009100141CE32AE42AE02AC0
:1005C80020008E15080021005508031DEC2AED2A8D
:1005D800FF2A3D008E019201163091009F3097004E
:1005E8007B309200F82A8E158E1DFB2AFC2AF72AEA
:1005F8002100D501D50A5503031D032B042B122B0B
:100608003D008E1A082B092B122B9001920112140F
:10061800121602302100EB006B08D5003D00101DBA
:10062800162B172B242B121D1A2B1B2B242BFB30BC
:100638002100EB006B083D0090059631CE268231F3
:100648003D008E1C282B292B2C2B20001211152C39
:10065800101C2F2B302B412B121C332B342B412BEE
:100668008F315627823104302100EB006B08D5000A
:10067800FE30EB006B083D009005101E442B452B07
:100688004C2B121E482B492B4C2B96317426823149
:100698003D00101F502B512B7E2B121F542B552B16
:1006A800652B73302100D9000030DA000030DB0000
:1006B8000030DC000130DD000030DE00883192209F
:1006C8008231BF302100EB006B083D009005963168
:1006D8009026823121004C080319732B742B762B3A
:1006E8000130CC024C08031D7A2B7B2B7E2B8A31E0
:1006F800A32282313D00901E822B832B8A2B921ECF
:10070800862B872B8A2B97317A2782313D00901CC4
:100718008E2B8F2BA52B921C922B932BA52BFF3066
:100728002100D9007F30DA000030DB000030DC0027
:100738000130DD000030DE008831922082313D003A
:1007480093010430210055020318AB2BAC2BAF2BBF
:1007580020001211152C3D00921DB32BB42B132C25
:100768002100ED013D00901DBA2BBB2B132C0F0867
:100778002100EB006B08D700570CEB00EB0C6B0C5F
:100788000F39EC006C08CE00F730EB006B083D0029
:10079800900521005719D12BD22BE22B4E08AC3EE5
:1007A80086000130870001080139EB000130EB06B3
:1007B80001086B06FE396B068100F12B4E08B03E2E
:1007C80086000130870001080139EB000130EB0693
:1007D80001086B06FE396B0681004E08031DF52BD8
:1007E800F62BFA2B893120218231082C7230D9005E
:1007F8000030DA00D730DB000030DC000030DD00EC
:10080800DE0088319220823101302100EB006B0834
:10081800ED0704306D02031C122C132CB62B20009C
:1008280012110800200060081F39013A03191D2C15
:100838001E2C1F2C2C2D64080319232C242C302C3F
:1008480064030319282C292C302C02306406031960
:100858002E2C2F2C302C2C2D06306106031D352C08
:10086800362CD22CBF2C21005803031D3C2C3D2CC8
:10087800D22C200064086504031D432C442C512C01
:1008880012302100B8009030B9000930BB000030A8
:10089800BC00C030F0007008BA0020006403650492
:1008A800031D572C582C652C32302100B80090308D
:1008B800B9000930BB000030BC00C030F00070083F
:1008C800BA000230200064066504031D6C2C6D2CF0
:1008D800D22C52302100B8009030B9000930BB004A
:1008E8000030BC00C030F0007008BA00D22C2100E3
:1008F8005803031D802C812CD22C20006408650429
:10090800031D872C882C952C69302100B800903065
:10091800B9005730BB000030BC00C030F000700890
:10092800BA00200064036504031D9B2C9C2CA92C91
:1009380000302100B8009830B9001C30BB000030EE
:10094800BC00C030F0007008BA0002302000640615
:100958006504031DB02CB12CD22C38302100B8000E
:100968009830B9001C30BB000030BC00C030F0002B
:100978007008BA00D22C6308F000F1017108003A3F
:100988000319C72CD22C7008213A0319372C033AC3
:1009980003197B2C013A0319D22CD22C2000600EAB
:1009A800890C0339013A0319DA2CDB2C102D2C2D74
:1009B800D6302100B8000030B9000130BB0000304B
:1009C800BC00C130F0007008BA002C2D8030F00057
:1009D80070082100BA0020006308F00070082100A8
:1009E800D6002C2D2F302100B8000130B90001307D
:1009F800BB000030BC008130F0007008BA002C2D1C
:100A08008030F00070082100BA0020006208F00071
:100A180070082200AF002C2D6108F000F101710868
:100A2800003A0319182D2C2D7008013A03192C2DA2
:100A3800033A0319DC2C013A0319F62C0A3A031974
:100A48002C2D033A0319EA2C013A0319042D2C2DF5
:100A580008002100C501410842040319342D352D31
:100A68003D2D4108860042088700811B3C2D3D2D05
:100A78003F2DC501C50A3F0840040319442D452DE3
:100A88004D2D3F08860040088700811B4C2D4D2DB9
:100A9800512D0E30F0007008C50024001108F00038
:100AA80070082200A70024001513240014181E3211
:100AB80014181C3214181A32141818321418163252
:100AC80014181432141812321418103214180E3262
:100AD80014180C3214180A32141808321418063272
:100AE80014180432141802321418003200002400BA
:100AF800141C7F2D802D172E55301106031D852DB2
:100B0800862D172E76309100141C8B2D8C2D882D58
:100B180055301106031D912D922D1B2E21004508DD
:100B280024009100141CFE3324001108F000700802
:100B38002300BA0024009101141CFE33240011087C
:100B4800F00070082300B9002100451CAC2DAD2D24
:100B5800F82D2200AA01503084002030850024009E
:100B68001108141CFE3311081A00141CFE33110856
:100B78001A00141CFE3311081A00141CFE33110845
:100B88001A00141CFE3311081A00141CFE33110835
:100B98001A00141CFE3311081A00141CFE33110825
:100BA8001A00141CFE3311081A00141CFE33110815
:100BB8001A00141CFE3311081A00141CFE33110805
:100BC8001A00141CFE3311081A00141CFE331108F5
:100BD8001A00141CFE3311081A00141CFE331108E5
:100BE8001A0024009101172E45080E390319FD2D0E
:100BF800FE2D172E2200AC01AC0A2830890B022EDC
:100C080096315C2685315030890B082E813196212A
:100C180085311430890B0E2E8731F72785317830CE
:100C2800890B142E172E2400910195131513080013
:100C38002030210055020318222E232E242EF42EB4
:100C48003D008E1C282E292E2A2EF42E2100410824
:100C580042040319302E312E392E410886004208ED
:100C68008700811B382E392E7C2E22002A08031D6E
:100C78003E2E3F2E7C2EB0308600213087000108A2
:100C8800FB007B082100A000B030860021308700DF
:100C980041310108FB007B08A100A20124001508CE
:100CA800FB007B082100A30024001408FB007B083C
:100CB8002100A400EF308600213087000108FB00E6
:100CC8007B08A5002200AA01AA0AF001F00AA030B8
:100CD800F1000030F2001030FB007B08F300013017
:100CE8008D318925863171082100C2007008C10044
:100CF8002300360837040319822E832E8B2E3608DC
:100D0800860037088700811B8A2E8B2EA42E22008E
:100D180029080319902E912EA42EA901F001303034
:100D2800F1000130F2004030FB007B08F300013095
:100D38008D318925863171082300B7007008B60007
:100D480021003F0840040319AA2EAB2EB32E3F08FA
:100D5800860040088700811BB22EB32ECC2E2200BD
:100D68002C080319B82EB92ECC2EAC01F001B030E6
:100D7800F1002130F2004030FB007B08F300033023
:100D88008D318925863171082100C0007008BF00A7
:100D98002300340835040319D22ED32EDB2E340851
:100DA800860035088700811BDA2EDB2EF42E220000
:100DB8002B080319E02EE12EF42EAB01F0013030A0
:100DC800F1002130F2003130FB007B08F3000230E3
:100DD8008D318925863171082300B5007008B4006B
:100DE80008007108FD007008FC0074087504031DF4
:100DF800FE2EFF2E002FBE2F7C0886007D08870060
:100E08007208810074087C07F60075087D3DF700BC
:100E18007608FF3EF800FF30773DF9007808860035
:100E280079088700720881000030750203300319C1
:100E380074020318202F212F222FBE2F7C08013E79
:100E4800F60000307D3DF7007608860077088700B9
:100E5800720881007C08023EF60000307D3DF700F4
:100E680076088600770887007208810074087C0776
:100E7800F60075087D3DF7007608FE3EF800FF3065
:100E8800773DF900780886007908870072088100A4
:100E980074087C07F60075087D3DF7007608FD3E6E
:100EA800F800FF30773DF900780886007908870058
:100EB80072088100003075020730031974020318A4
:100EC800662F672F682FBE2F7C08033EF600003080
:100ED8007D3DF70076088600770887007208810054
:100EE80074087C07F60075087D3DF7007608FC3E1F
:100EF800F800FF30773DF900780886007908870008
:100F08007208810000307502093003197402031851
:100F18008E2F8F2F902FBE2F7C09F6007D09F700AA
:100F2800F60A0319F70A03307605FA000030770548
:100F3800FB007A08FC077B08FD3D7A08F4027B0871
:100F4800F53BFC30F405FF30F505B82F7C0886002A
:100F58007D088700720881000130F4020030F53BFB
:100F68000130FC070030FD3D74087504031DBD2FDA
:100F7800BE2FAA2F0800023021005206031DC52FDC
:100F8800C62FCA2F8E31AC268731F62FD2014D08D5
:100F9800031DCF2FD02FF52F4308013EF600003058
:100FA800443DF700760886007708870008308100FE
:100FB8006030F6000030F7004308860044088700D8
:100FC80042317608C03F7708C13F4308860044088D
:100FD80087000C3081004308860044088700811789
:100FE800F62FCD01080021008E150E144030240084
:080FF80094002430950008006C
:10100E00F2007208F000F1017108003A031910287D
:10101E0018287008003A03191828013A03191828DD
:10102E001828080021008E140E110D302100EF003B
:10103E002D30EE00D730890B2228EE0B2228EF0B35
:10104E00222800328731F72788318F315627883191
:10105E0021000E1222000E1285312D25883122001C
:10106E000E168231E72288312030210055020318F6
:10107E0041284228432831283D008E1C4728482805
:10108E004928312886311C2688313128803108289C
:10109E00F5002030F1007108F6007008F100013003
:1010AE00F135890B57287508F2000130F235FF3EF5
:1010BE00031D5D2872357107F3000130F335FF3ED5
:1010CE00031D65287335F4007408F607760886004C
:1010DE00870181137008031D7528762880287535C1
:1010EE00A03E8600013087007608C03F0030C13F29
:1010FE0088287535B03E860087017608C03F0030DF
:10110E00C13F76088600870101137608043E8600EB
:10111E00870101170800AF288931D3218831D728DC
:10112E008931D321883101309631AD268831D728C7
:10113E008931D321883102309631AD268831D728B6
:10114E009731A5278831D728843116248831D7289E
:10115E0021005A08003A0319B8287F3A0319D228F9
:10116E00D7285908013A0319A728033A0319D72893
:10117E00013A0319AB28063A0319D728773A03190F
:10118E00D728013A03199328073A03199F28013AE1
:10119E0003199728D7285908FF3A0319D728D728B3
:1011AE0008002100D301CB01C801C701CD01D20136
:1011BE007F30E80030088600310887006808810516
:1011CE0004303006B00000303106B1007F30E80048
:1011DE003008860031088700680881050430300623
:1011EE00B00000303106B1007F30E80043088600C1
:1011FE004408870068088105BA01BB01BC012200C2
:10120E00A201A301A4018C310224883103302100F4
:10121E00D9000030DA000030DB000030DC00003096
:10122E00DD00DE008831922088318E311026883123
:10123E0008002D302100E9006908CC005708FD395F
:10124E00031D2A292B29672957363F39E90001301A
:10125E00E935FF3E031D2F296935203EEA006A0855
:10126E00D4005408C300FF39031D0030C4000430FD
:10127E004306C30000304406C400540886008701AC
:10128E00010C890C0F390D3A031D4E294F29632984
:10129E005408023E86008701403FF000413FF100B6
:1012AE000830F2000030F30060309731D2278931D8
:1012BE008831D820893173298731BF278931732925
:1012CE00FD305705E90004306906031D6F297029AA
:1012DE0073298B318A23893108002100C801C70187
:1012EE0002305206031D7C297D29A2294308013EA6
:1012FE00F3000030443DF400730886007408870044
:10130E00083081006830F3000030F4004308860096
:10131E004408870042317308C03F7408C13F430838
:10132E008600440887004830810043088600440840
:10133E0087008117D2293C0820006702031DAB29C4
:10134E0021003B08200066020318AE29AF29B629FA
:10135E0067082100BC00200066082100BB008B310D
:10136E00152389316830F3000030F4002100300875
:10137E0086003108870042317308C03F7408C13FB0
:10138E00300886003108870048308100300886001A
:10139E0031088700811708003D008E1CD729D829F7
:1013AE00222A01309631EF268931352A3D033E043B
:1013BE00031DE229E329E8290130973111278931EC
:1013CE00302A4B303D063E04031DEE29EF29F42949
:1013DE0001309631EF268931302A00303E029730A7
:1013EE0003193D02031CFC29FD29002ABD01BE0183
:1013FE00302A302A3D033E04031D062A072A0C2AF2
:10140E000130973111278931302A32303D063E04A2
:10141E00031D122A132A182A01309631EF2689311C
:10142E00302A03303E02B73003193D02031C202A36
:10143E00212A302AFD2921005508F300F4017408F1
:10144E00003A03192B2A012A7308203A0319DD29C1
:10145E00012A01302100BD070030BE3D08002000EA
:10146E00E801E901802A2100BA175003031D402A22
:10147E00412A942A2000E814942A2100BA17942AAB
:10148E002100BA17200064080F39003A0319502AB8
:10149E00512A942AE41B542A552A612A64080F39CA
:1014AE000907A03E860001308700403FF200413F11
:1014BE00F3006B2A64080F390907B03E86008701D6
:1014CE00403FF200413FF300720886007308870028
:1014DE00811F722A732A942A720886007308870065
:1014EE00011D7A2A7B2A942A0130F0007008E80048
:1014FE00942A60081F39F000F1017108003A0319AF
:10150E00892A942A7008003A03193A2A013A0319D3
:10151E00442A033A0319472A942A2100BA1F982A0B
:10152E00992AA22A6830B8000030B9003A14023065
:10153E00F0007008BB00080021004A08031DA82A0D
:10154E00A92A142B0130F0007008CA004908031DA7
:10155E00B12AB22A142B0130F0007008C9000230F3
:10156E005206031DBB2ABC2ACE2A3008860031083B
:10157E0087004131810130088600310887004830EC
:10158E00810030088600310887008117142B520322
:10159E00031DD22AD32A142BCD010830F000540A91
:1015AE0086008701700881006030F0000030F10085
:1015BE005408023E860087017008C03F7108C13F83
:1015CE000430F0005408860087017008810054082A
:1015DE00860087018117CD01CD0A4308013EF00038
:1015EE000030443DF1007008860071088700083015
:1015FE0081006030F0000030F1004308860044089E
:10160E00870042317008C03F7108C13F4308860011
:10161E004408870080308100142B08000830F00049
:10162E007008F200003021003C02083003193B0222
:10163E000318222B232B382B3B08F0007008F200E6
:10164E005308031D2B2B2C2B2F2BD301D30A382BF6
:10165E005303031D332B342B382B0230F00070084C
:10166E00D3007208F000F1017008BB027108BC3B98
:10167E003008013EF0000030313DF1007008860068
:10168E0071088700720881006830F0007008D10080
:10169E003A18522B532B842B692B380884003908A7
:1016AE0085000008F000510886008701700881004F
:1016BE000130B8070030B93D0130F0007008D10795
:1016CE000130F2027208031D6D2B6E2B542B892BE9
:1016DE0038088400390885000008F000510886009B
:1016EE008701700881000130B8070030B93D013024
:1016FE00F0007008D1070130F2027208031D882B2A
:10170E00892B6F2B080021003008860031088700D6
:10171E000030011B0130F50004303006B0000030FF
:10172E003106B10008305506031D9E2B9F2BB42B9E
:10173E00200062087F393D00960016080319A82B79
:10174E00A92BAF2B1030F30073082100D500B42B5A
:10175E000430F30073082100D5005203031DB82B8B
:10176E00B92BF92B6830F3000030F40030088600F6
:10177E003108870042317308C03F7408C13F8B3176
:10178E0015238B31023021005306031DCF2BD02B96
:10179E00DC2B3008860031088700043081003008C9
:1017AE008600310887008117012C7508031DE02B78
:1017BE00E12BED2B30088600310887004830810080
:1017CE0030088600310887008117012C300886000A
:1017DE003108870008308100300886003108870004
:1017EE008117012C2200A21FFD2BFE2BFF2BA21313
:1017FE002100D20108002000600E890C0339003A46
:10180E0003190A2C0B2C512C7D2CBA170830E6002C
:10181E006608D5007D2C8C317E248C317D2C8D314B
:10182E0003258C317D2CD830B8000030B9003A1425
:10183E00BB01BB0ABA177D2C8A3136228C317D2C26
:10184E0080312F208C317D2C20006408BB3E21007E
:10185E00B8000130B9001E2CBA1720006208210012
:10186E00E60020006408BB3E8600013087002100A0
:10187E00660881007D2C0230D9000030DA0000307D
:10188E00DB000030DC000030DD00DE00883192200D
:10189E008C317D2C61082100E600E7016708003AD3
:1018AE0003195A2C7D2C6608003A0319232C013A91
:1018BE000319272C023A0319272C063A03190C2C6C
:1018CE00033A0319122C013A0319422C0F3A031949
:1018DE001A2C013A0319162C033A03192B2C013A30
:1018EE000319332C073A03197D2C7D2C0800803008
:1018FE0020006006031D842C852C022DC030F000C4
:10190E0070082100BA00EE2C4E302100B80098303D
:10191E00B9001230BB000030BC00022D6208031D5E
:10192E00992C9A2CC92C6208F000F101F035F10DBA
:10193E006A30700784009830713D8500003F2100A9
:10194E00B800013FB9003908F1003808F000023044
:10195E007007840071080318710A85000008F200F0
:10196E007208BB003908F1003808F0000330700728
:10197E00840071080318710A85000008F2007208CD
:10198E00BC00022D2100BA01022D033062020318A1
:10199E00D12CD22CC92C6208F000F101F035F10DDA
:1019AE006030700784009830713D8500003F210043
:1019BE00B800013FB90038088400390885000008D6
:1019CE00F000F1017008BB007108BC00022D200070
:1019DE006308F000F1017108003A0319F72CC92CC5
:1019EE007008013A03198B2C033A0319952C013A0E
:1019FE000319CC2CC92C08002100BA170E30E100B7
:101A0E009930E000E20160088600610887008101DC
:101A1E000130E0070030E13D0130DF005F08E207F2
:101A2E0003306202031C1C2D1D2D0A2D2030F000E8
:101A3E000030F1000030F200F3004030F4000030CE
:101A4E00F5008631F5268D313D000E172100E3019C
:101A5E006308B03E86000130870081016308AC3E0A
:101A6E0086000130870081010130DF005F08E30747
:101A7E0004306302031C442D452D2F2DBB30F00086
:101A8E000130F1000030F200F3000330F4000030BA
:101A9E00F5008631F5268D313D000E1328302100DC
:101AAE00B0000030B1002030DF005F08D4005408D1
:101ABE00C300FF39031D0030C4002000620821005E
:101ACE00DF005F08D8005808031D6E2D6F2D742D92
:101ADE001030DF005F08D500882D0130D9000030AE
:101AEE00DA00D830DB000030DC000130DD000030E1
:101AFE00DE00883192208D3120302100DF005F081A
:101B0E00D5000800F800700803198E2D8F2D982D22
:101B1E007835B03E86008701403FF900413FFA001C
:101B2E00A12D7835A03E860001308700403FF90098
:101B3E00413FFA0079087A04031DA62DA72DAA2D80
:101B4E00F001F1010F2EFF307105F4007F307205A8
:101B5E00F500790886007A08870042317408C03F84
:101B6E007508C13F7908013EF40000307A3DF5005A
:101B7E007408860075088700730881004030F400F1
:101B8E00790886007A08870074088105790886002E
:101B9E007A0887008115790886007A0887008117F0
:101BAE0070080319DB2DDC2DF32D7835B03E860041
:101BBE008701403FF400413FF50004307406F60003
:101BCE0000307506F7007835B03E8600870176083E
:101BDE00C03F7708C13F0B2E7835A03E86000130FE
:101BEE008700403FF400413FF50004307406F600D4
:101BFE0000307506F7007835A03E8600013087006C
:101C0E007608C03F7708C13F7A08F1007908F000E6
:101C1E0008003D000E122100BA1B162E172E5E2E46
:101C2E002200A21F1B2E1C2E2D2E0230F500750831
:101C3E002100D2004708031D252E262E292E89317C
:101C4E0074218E312100C901CA01AB2E2100430837
:101C5E00013EF5000030443DF6007508860076081A
:101C6E008700083081006030F5000030F600430830
:101C7E0086004408870042317508C03F7608C13F90
:101C8E0043088600440887000C3081004308860014
:101C9E004408870081173008860031088700043019
:101CAE00810030088600310887008117AB2E200096
:101CBE00E01F622E632E7A2E2100D201D20A48082E
:101CCE00031D6A2E6B2E6E2E893174218E312100EA
:101CDE00C901CA014B08031D752E762EAB2E8A3113
:101CEE00A3228E31AB2E0230F50075082100D200F2
:101CFE004308013EF5000030443DF60075088600AD
:101D0E0076088700083081006030F5000030F6005C
:101D1E00430886004408870042317508C03F7608A4
:101D2E00C13F430886004408870004308100430801
:101D3E008600440887008117C901CA014B08031D9C
:101D4E00A92EAA2EAB2E762E08002100540886004E
:101D5E008701413FF5007508F200F3017308220078
:101D6E002402031DBC2E720823020318BF2EC02EA0
:101D7E00C42E2308F2007208F5007508F200F30174
:101D8E007208A3027308A43BF401E02E7408683EA7
:101D9E00860087010108F20020088600870172087C
:101DAE0081000130F2007208A0070130F2007208C3
:101DBE00F40775087402031CE52EE62ECD2E2308BB
:101DCE0024040319EB2EEC2E252F21004308013E8F
:101DDE00F2000030443DF30072088600730887005D
:101DEE00083081006830F2000030F30043088600AE
:101DFE004408870042317208C03F7308C13F54083F
:101E0E0086008701011B0C2F0D2F192F430886000A
:101E1E004408870048308100430886004408870044
:101E2E008117552F4308860044088700083081002B
:101E3E0043088600440887008117552F2100430868
:101E4E00013EF2000030443DF30072088600730834
:101E5E008700083081006030F2000030F300430844
:101E6E0086004408870042317208C03F7308C13FA4
:101E7E00430886004408870004308100430886002A
:101E8E004408870081172200A21321004B08031D6E
:101E9E00512F522F552F8A31A3228E310800210047
:101EAE0012113D009301900198010E30F20099300D
:101EBE00F100F3017108860072088700810101307C
:101ECE00F1070030F23D0130F0007008F3070330E7
:101EDE007302031C732F742F612F16303D00910077
:101EEE009F3097007B309200F4017408F0000130AF
:101EFE00F035FF3E031D7F2F7035203E8600870193
:101F0E000030C03F0030C13FC23FC33F0130F00040
:101F1E007008F40710307402031C962F972F7C2F35
:101F2E003D000E1796010E120E13F730F0007008DA
:101F3E0090052100BA012200A201A301A4013D00D7
:101F4E009019AA2FAB2F9C2F0130F00070082100A2
:101F5E00CA000130F0007008C900C801C701CF01E6
:101F6E00F4017435B03E860087010030C03FC13F9A
:101F7E007435A03E8600013087000030C03FC13F5F
:101F8E007408B03E86000130870081017408AC3EB3
:101F9E0086000130870081010130F0007008F407DF
:101FAE0004307402031CDC2FDD2FB82F28302100E3
:101FBE00B0000030B10016303D0098000030200017
:101FCE00A3006030A2000830A1000430F0007008B9
:101FDE00A000A0172100D80100302300AB00003074
:101FEE00AA000030A9000030A8002100C601D501CA
:101FFE0008000934023469340034033401340034E7
:10200E00C034FA3409340434003400340234033456
:10201E0000340034003409342134113401340034D6
:10202E0001342234573400340734053481340334F8
:10203E00403400340334073405340134033440345F
:10204E0000340334093404340134003402340334CC
:10205E000034003400340934213411340134003496
:10206E00013422341C3400340734053482340334F2
:10207E0040340034643407340534023403344034BD
:10208E000034053409340434023400340234033489
:10209E000034003400340934213411340134003456
:1020AE0001342234163400340734053483340334B7
:1020BE00403400346434073405340334033440347C
:1020CE00003401340534013409340434A1340134AC
:1020DE00173401340034003480342734FF34FF3495
:1020EE00FF347F3475342034953401340534013493
:1020FE000934383481340234153400342634FF3434
:10210E000034353400344634FF340034753408342A
:10211E009534023405340134093430340934313401
:10212E0081340234053409340934013495340134D0
:10213E00753408342634FF340034153400348134B9
:10214E00023495340934753408340934F03481344A
:10215E000234153400342634FF340034753401341F
:10216E00953440340534013409344B3491340234FF
:10217E00C034343403344D340034693400346334A1
:10218E000034723400346F340034633400346834F5
:10219E000034693400347034003420340034543444
:1021AE0000346534003463340034683400346E34E3
:1021BE0000346F3400346C3400346F3400346734C0
:1021CE0000347934003420340034493400346E3411
:0A21DE000034633400342E34003462
:102CB80021008E110E1020008E1501302400920084
:102CC80094012A3095000800640080010131013028
:102CD800FE020030FF3B7F087E04031D692E00348E
:102CE8003D001215EF302100DF005F083D00900520
:102CF8008E142100CF01CF0AC6017530D9000030EB
:102D0800DA000030DB000030DC000030DD00DE00DF
:102D1800883192209631080001302300A80700303E
:102D2800A93D0030AA3D0030AB3D21004F08031DEE
:102D38009E2E9F2EAC2E0130F0007008C607460864
:102D4800031DA72EA82EAC2EFF30F0007008C60079
:102D58000800F50023008E01BA2E01309731332781
:102D680096310130883107209631CD2E7508F30051
:102D7800F4017408003A0319C22ECD2E7308003AE4
:102D88000319B12E013A0319CD2E033A0319CD2E9A
:102D9800CD2E08002100CF017430D9000030DA00B0
:102DA8000030DB000030DC000030DD00DE00883160
:102DB800922096313D008E101211E82EFB30210032
:102DC800DF005F083D0090051019EB2EEC2EE22E77
:102DD8002100C6010800F200FA2E22000E12102F60
:102DE80022008E10102F22000E11102F7208F000F2
:102DF800F1017108003A0319022F102F7008003AE8
:102E08000319102F013A0319F12E033A0319F42E6E
:102E1800013A0319F72E102F0800F2001C2F220088
:102E28000E16322F22008E14322F22000E15322F4A
:102E38007208F000F1017108003A0319242F322FAB
:102E48007008003A0319322F013A0319132F033A75
:102E58000319162F013A0319192F322F0800F2000F
:102E68003E2F21000E12542F21008E10542F2100C6
:102E78000E11542F7208F000F1017108003A03197D
:102E8800462F542F7008003A0319542F013A03199A
:102E9800352F033A0319382F013A03193B2F542FC2
:102EA8000800FC00771D592F5A2F5F2FF0017C086E
:102EB80088314F209731F71C622F632F692FF0015B
:102EC800F00A7C0888314F2097317C08983EF8003A
:102ED800F9010E30F93D7808FA007908FB007A0804
:102EE80086007B0887007708810008003D00181CD1
:102EF8007E2F7F2FA02F2100540886008701803065
:102F08000106031D882F892F9E2F3008860031085F
:102F1800870084300106031D922F932F9E2F0C30BB
:102F2800F000540886008701700881005408860064
:102F3800870181173D001810DF30F00070089005F8
:102F480008002100C101C2012300B601B701B40184
:102F5800B5012100BF01C0012200AC01AC0AAB01E0
:102F6800AB0AAA01AA0AA901A90A1E30FD007D0818
:102F7800F70001309731552797311E30FD007D0845
:102F8800F70002309731552797311E30FD007D0834
:102F9800F70003309731552797310800F80071087A
:102FA800F6007008F5007808F4007408F900F32FAB
:102FB80075088600760887000108F4007408F70091
:102FC8000130F5070030F63D7708F40079088600EF
:102FD8008701740881000130F4007408F907013092
:102FE800F2020030F33B720A031DFE2F730A031D21
:102FF800FE2FFF2FDC2F0800053408340934523423
:10300800A1340234153400342634003401347534C4
:103018000834953431340534083409344B340934D0
:103028005334093455340934543491340234C03497
:103038001C3403344A3400346F3400347934003497
:103048007334003474340034693400346334003425
:103058006B34003420340034443400346534003494
:103068006D3400346F3400340534143409340234B8
:10307800A134023415340034263400340134753454
:103088000834953440340534143409340234913406
:103098000234C034123401340034023400340034B1
:1030A80000340834D83404345E3400340134003435
:1030B800013402340034013466349834C034903416
:1030C8001C34983404340334093404340034903400
:020000040001F9
:08000000FF3FFF3FFF3FFF3F00
:04000E00C20F4F3F8F
:00000001FF
