:04000000803108281B
:100008007E1480317E10090080310A285030840027
:100018009730850023001200B9001200BA001200C0
:10002800BB001200BC001200BD001200BE0012008E
:10003800BF001200C000B0308400003085002830B6
:10004800FE000030FF00883102208031203084001B
:10005800013085000F30FE000030FF00883102209B
:100068008031A0308400013085001930FE00003056
:10007800FF008831022080317E1020008931182944
:1000880020006203031D49284A28602860081F3998
:10009800003A031D5028512860282100BA17033060
:1000A80020006106031D59285A285E282100CE0128
:1000B800CE0A60282100CE0120006208031D6528B1
:1000C8006628AA2960081F39023A031D6C286D2882
:1000D800AA2964080F39003A031973287428AA2931
:1000E80064080F392100DE0004305E0203187D2801
:1000F8007E28AA2920305306031D83288428AA298C
:10010800BA172000E41B89288A28A32864080F3915
:100118000907A03E860001308700403F2100E30028
:10012800413FE400200064080F39AC3E86000130EE
:10013800870001082100DE005E08E200BA28640892
:100148000F390907B03E86008701403F2100E300D0
:10015800413FE400200064080F39B03E86000130BA
:10016800870001082100DE005E08E2006218BD2851
:10017800BE28C928FB30DE00FF30DF0063085E05BB
:10018800E30064085F05E400CF2804306304E3005B
:1001980000306404E4002000E41BD328D428E128BC
:1001A80064080F390907A03E860001308700210046
:1001B8006308C03F6408C13FEC2864080F39090789
:1001C800B03E8600870121006308C03F6408C13F34
:1001D800033020006106031DF228F3281C292100A2
:1001E8006308860064088700811FFB28FC28102903
:1001F8002000E41B00290129092964080F39AC3EB5
:100208008600013087008114102964080F39B03E38
:100218008600013087008114210063088600640885
:100228008700011563088600640887008117AA29DA
:10023800043021006306E30000306406E40063082C
:10024800860064088700811F2A292B2948297F30C6
:10025800DE0063088600640887005E08810563087D
:1002680086006408870001170530D8000030D900DF
:100278006408DB006308DA000230DC000030DD00CF
:100288008931C32180314D296308860064088700BD
:100298000117043021006306E30000306406E4001F
:1002A800E2185729582960296308860064088700DE
:1002B800811F5F2960298D292000E41B6429652995
:1002C8006D2964080F39AC3E860001308700811023
:1002D800742964080F39B03E860001308700811008
:1002E8003B302100DE0063088600640887005E0852
:1002F80081050530D8000030D9006408DB006308A8
:10030800DA000230DC000030DD008931C3218031A1
:1003180095293B30DE0063088600640887005E0884
:100328008105200064080F39983E2100DE00DF01B6
:100338000E30DF3D5E08E0005F08E100FE30DE00C1
:1003480060088600610887005E0881050800B030F3
:10035800860021308700240016009100141CFE330B
:10036800110816009100141CFE33110816009100A4
:10037800141CFE33110816009100141CFE331108DA
:1003880016009100141CFE33110816009100141C6D
:10039800FE33110816009100141CFE3311081600D4
:1003A8009100141CFE33110816009100141CFE3332
:1003B800110816009100141CFE3311081600910054
:1003C800141CFE33110816009100141CFE3311088A
:1003D80016009100141CFE33110816009100141C1D
:1003E800FE33110816009100141CFE331108160084
:1003F8009100141CFE33110816009100141CFE33E2
:10040800110816009100141CFE3311081600910003
:10041800141CFE33110816009100141CFE33110839
:1004280016009100141CFE33110816009100141CCC
:10043800FE33110816009100141CFE331108160033
:100448009100141CFE33110816009100141CFE3391
:10045800110816009100141CFE33110816009100B3
:10046800141CFE33110816009100141CFE331108E9
:1004780016009100141CFE33110816009100141C7C
:10048800FE33110816009100141CFE3311081600E3
:100498009100141CFE33110816009100141CFE3341
:1004A800110816009100141CFE3311081600910063
:1004B800141CFE33110816009100141CFE33110899
:1004C80016009100141CFE33110816009100141C2C
:1004D800FE33110816009100141CFE331108160093
:1004E8009100141CFE33110816009100141CFE33F1
:1004F800110816009100141CFE3311081600910013
:10050800141CFE33110816009100141CFE33110848
:1005180016009100141CFE33110816009100141CDB
:10052800FE33110816009100141CFE331108160042
:100538009100141CFE33110816009100141CFE33A0
:10054800110816009100141CFE33110816009100C2
:10055800141CFE33110816009100141CFE331108F8
:1005680016009100141CFE33110816009100141C8B
:10057800FE33110816009100141CFE3311081600F2
:100588009100141CFE33110816009100141CFE3350
:10059800110816009100141CFE3311081600910072
:1005A800141CFE33110816009100141CFE331108A8
:1005B80016009100141CFE33110816009100141C3B
:1005C800FE33110816009100141CFE3311081600A2
:1005D8009100141CFE331108080021005308031D64
:1005E800F62AF72A092B3D008E0192011630910058
:1005F8009F3097007B309200022B8E158E1D052BA5
:10060800062B012B2100D301D30A5303031D0D2B05
:100618000E2B1C2B3D008E1A122B132B1C2B90011A
:1006280092011214121602302100EA006A08D3005F
:100638003D00101D202B212B2E2B121D242B252B8A
:100648002E2BFB302100EA006A083D009005973107
:10065800BD2782313D008E1C322B332B362B2000D8
:1006680012111F2C101C392B3A2B4B2B121C3D2B13
:100678003E2B4B2B8631BC26823104302100EA0008
:100688006A08D300FE30EA006A083D009005101E93
:100698004E2B4F2B562B121E522B532B562B97316A
:1006A800632782313D00101F5A2B5B2B882B121FAA
:1006B8005E2B5F2B6F2B73302100D8000030D900E0
:1006C8000030DA000030DB000130DC000030DD00F3
:1006D8008931C3218231BF302100EA006A083D0018
:1006E800900597317F27823121004A0803197D2B15
:1006F8007E2B802B0130CA024A08031D842B852BD0
:10070800882B8B31D42382313D00901E8C2B8D2B6E
:10071800942B921E902B912B942B8831BF208231E1
:100728003D00901C982B992BAF2B921C9C2B9D2B3A
:10073800AF2BFF302100D8007F30D9000030DA001D
:100748000030DB000130DC000030DD008931C321DE
:1007580082313D0093010430210053020318B52B68
:10076800B62BB92B200012111F2C3D00921DBD2B5A
:10077800BE2B1D2C2100EC013D00901DC42BC52B68
:100788001D2C0F082100EA006A08D600560CEA0062
:10079800EA0C6A0C0F39EB006B08CC00F730EA0062
:1007A8006A083D00900521005619DB2BDC2BEC2B49
:1007B8004C08AC3E86000130870001080139EA0088
:1007C8000130EA0601086A06FE396A068100FB2B39
:1007D8004C08B03E86000130870001080139EA0064
:1007E8000130EA0601086A06FE396A0681004C08EB
:1007F800031DFF2B002C042C8A3151228231122C2C
:100808007230D8000030D900D630DA000030DB0072
:100818000030DC00DD008931C32182310130210044
:10082800EA006A08EC0704306C02031C1C2C1D2C1F
:10083800C02B200012110800200060081F39013A5F
:100848000319272C282C292C362D640803192D2C44
:100858002E2C3A2C64030319322C332C3A2C0230F8
:1008680064060319382C392C3A2C362D06306106CB
:10087800031D3F2C402CDC2CC92C21005703031DE1
:10088800462C472CDC2C200064086504031D4D2CE5
:100898004E2C5B2C12302100B8009030B900093082
:1008A800BB000030BC00C030F0007008BA00200067
:1008B80064036504031D612C622C6F2C3230210007
:1008C800B8009030B9000930BB000030BC00C0301F
:1008D800F0007008BA000230200064066504031DA9
:1008E800762C772CDC2C52302100B8009030B900DF
:1008F8000930BB000030BC00C030F0007008BA00FE
:10090800DC2C21005703031D8A2C8B2CDC2C2000A7
:1009180064086504031D912C922C9F2C69302100DA
:10092800B8009030B9005730BB000030BC00C03070
:10093800F0007008BA00200064036504031DA52CAC
:10094800A62CB32C00302100B8009830B9001C3018
:10095800BB000030BC00C030F0007008BA000230A4
:10096800200064066504031DBA2CBB2CDC2C38302F
:100978002100B8009830B9001C30BB000030BC0022
:10098800C030F0007008BA00DC2C6308F000F101F8
:100998007108003A0319D12CDC2C7008213A03198C
:1009A800412C033A0319852C013A0319DC2CDC2C61
:1009B8002000600E890C0339013A0319E42CE52C58
:1009C8001A2D362DD5302100B8000030B90001307D
:1009D800BB000030BC00C130F0007008BA00362DF2
:1009E8008030F00070082100BA0020006308F00091
:1009F80070082100D500362DD4302100B800003011
:100A0800B9000130BB000030BC008130F000700834
:100A1800BA00362D8030F00070082100BA0020009E
:100A28006208F00070082100D400362D6108F0003B
:100A3800F1017108003A0319222D362D7008013A88
:100A48000319362D033A0319E62C013A0319002D30
:100A58000A3A0319362D033A0319F42C013A0319FB
:100A68000E2D362D08007108FD007008FC00740872
:100A78007504031D402D412D422D002E7C08860053
:100A88007D0887007208810074087C07F6007508E5
:100A98007D3DF7007608FF3EF800FF30773DF9000E
:100AA800780886007908870072088100003075028E
:100AB8000330031974020318622D632D642D002E70
:100AC8007C08013EF60000307D3DF7007608860080
:100AD80077088700720881007C08023EF600003023
:100AE8007D3DF70076088600770887007208810048
:100AF80074087C07F60075087D3DF7007608FE3E11
:100B0800F800FF30773DF9007808860079088700FB
:100B18007208810074087C07F60075087D3DF700AF
:100B28007608FD3EF800FF30773DF900780886002A
:100B380079088700720881000030750207300319B0
:100B480074020318A82DA92DAA2D002E7C08033E97
:100B5800F60000307D3DF7007608860077088700AC
:100B68007208810074087C07F60075087D3DF7005F
:100B78007608FC3EF800FF30773DF90078088600DB
:100B8800790887007208810000307502093003195E
:100B980074020318D02DD12DD22D002E7C09F60019
:100BA8007D09F700F60A0319F70A03307605FA00FB
:100BB80000307705FB007A08FC077B08FD3D7A08C2
:100BC800F4027B08F53BFC30F405FF30F505FA2DFF
:100BD8007C0886007D088700720881000130F402D5
:100BE8000030F53B0130FC070030FD3D740875040A
:100BF800031DFF2D002EEC2D08002030210053028C
:100C08000318072E082E092EBB2E3D008E1C0D2E14
:100C18000E2E0F2EBB2E22002D082E040319152E82
:100C2800162E1E2E2D0886002E088700811B1D2ECD
:100C38001E2E5B2EB0308600213087000108FB0095
:100C48007B082100A000B0308600213087004131A8
:100C58000108FB007B08A1004308FB007B08A200F9
:100C680024001508FB007B082100A30024001408B9
:100C7800FB007B082100A400EF30860021308700AC
:100C88000108FB007B08A500F001F00AA030F10084
:100C98000030F2001030FB007B08F3000130873190
:100CA8006627863171082200AE007008AD002B0857
:100CB8002C040319602E612E692E2B0886002C083F
:100CC8008700811B682E692E7B2EF0013030F100E1
:100CD8000130F2004030FB007B08F300013087311F
:100CE8006627863171082200AC007008AB0027081F
:100CF80028040319802E812E892E270886002808AB
:100D08008700811B882E892E9B2EF001B030F100C0
:100D18002130F2004030FB007B08F30003308731BC
:100D28006627863171082200A8007008A7002908E4
:100D38002A040319A02EA12EA92E290886002A0804
:100D48008700811BA82EA92EBB2EF0013030F100A0
:100D58002130F2003130FB007B08F300023087318C
:100D68006627863171082200AA007008A9000800C9
:100D7800210012113D009301900198010E30F200FC
:100D88009930F100F301710886007208870081012B
:100D98000130F1070030F23D0130F0007008F30730
:100DA80003307302031CD92EDA2EC72E16303D00ED
:100DB80091009F3097007B309200F4017408F00096
:100DC8000130F035FF3E031DE52E7035203E8600CC
:100DD80087010030C03F0030C13FC23FC33F0130F0
:100DE800F0007008F40710307402031CFC2EFD2E6E
:100DF800E22E3D000E1796010E120E13F730F0008A
:100E0800700890052100BA012200A201A301A401E3
:100E18003D009019102F112F022F0130F00070089B
:100E28002100C8000130F0007008C700C601C501E4
:100E3800CD01F4017435B03E860087010030C03F13
:100E4800C13F7435A03E8600013087000030C03FA6
:100E5800C13F7408B03E86000130870081017408E4
:100E6800AC3E86000130870081010130F000700837
:100E7800F40704307402031C422F432F1E2F28301E
:100E88002100B0000030B10016303D00980000305D
:100E98002000A3006030A2000830A1000430F00058
:100EA8007008A000A0172100D70100302300AB0074
:100EB8000030AA000030A9000030A8002100C401B9
:100EC800D3010800F800700803196B2F6C2F752FD9
:100ED8007835B03E86008701403FF900413FFA006F
:100EE8007E2F7835A03E860001308700403FF9000C
:100EF800413FFA0079087A04031D832F842F872F36
:100F0800F001F101EC2FFF307105F4007F3072051C
:100F1800F500790886007A08870042317408C03FD6
:100F28007508C13F7908013EF40000307A3DF500AC
:100F38007408860075088700730881004030F40043
:100F4800790886007A088700740881057908860080
:100F58007A0887008115790886007A088700811742
:100F680070080319B82FB92FD02F7835B03E8600F6
:100F78008701403FF400413FF50004307406F60055
:100F880000307506F7007835B03E86008701760890
:100F9800C03F7708C13FE82F7835A03E8600013072
:100FA8008700403FF400413FF50004307406F60026
:100FB80000307506F7007835A03E860001308700BE
:100FC8007608C03F7708C13F7A08F1007908F00039
:100FD8000800F2007208F000F1017108003A0319E4
:100FE800F62FFE2F7008003A0319FE2F013A031955
:060FF800FE2FFE2F080091
:101004006400800101310130FE020030FF3B7F08A3
:101014007E04031D03280034F200192822000E1256
:101024002F2822008E102F2822000E112F2872083C
:10103400F000F1017108003A031921282F287008E3
:10104400003A03192F28013A03191028033A031907
:101054001328013A031916282F280800F2003B2808
:1010640022000E16512822008E14512822000E153B
:1010740051287208F000F1017108003A031943285D
:1010840051287008003A03195128013A03193228EB
:10109400033A03193528013A03193828512808005E
:1010A400F2005D2821000E12732821008E1073288F
:1010B40021000E1173287208F000F1017108003A42
:1010C4000319652873287008003A03197328013A34
:1010D40003195428033A03195728013A03195A28C3
:1010E40073280800FC00771D782879287E28F001F1
:1010F4007C08893180218831F71C8128822888283E
:10110400F001F00A7C088931802188317C08983EFE
:10111400F800F9010E30F93D7808FA007908FB006F
:101124007A0886007B08870077088100080023007E
:101134003508803AF00083307002031DA328E8309C
:1011440034020318A628A728AD2801302300B407C9
:101154000030B53DBE282300B401B50120008E1136
:101164008131AB218831203024009100141CBB282C
:10117400BC28B82820008E1508003D00181CC32880
:10118400C428E52821005208860087018030010622
:10119400031DCD28CE28E3283008860031088700B7
:1011A40084300106031DD728D828E3280C30F0002A
:1011B4005208860087017008810052088600870162
:1011C40081173D001810DF30F0007008900508000A
:1011D400F8007108F6007008F5007808F400740847
:1011E400F9000B2975088600760887000108F400C9
:1011F4007408F7000130F5070030F63D7708F40075
:10120400790886008701740881000130F4007408AD
:10121400F9070130F2020030F33B720A031D16296C
:10122400730A031D16291729F428080021008E14B7
:101234000E110D302100EE002D30ED00D730890B5A
:101244002129ED0B2129EE0B212900329731582752
:1012540089318631BC26893188319920893182319E
:10126400F122893120302100530203183A293B2905
:101274003C292E293D008E1C4029412942292E2932
:101284008631012689312E29803108280230210037
:101294005006031D4E294F2953298F315627893172
:1012A4007F29D0014B08031D582959297E293F085D
:1012B400013EF6000030403DF700760886007708CE
:1012C4008700083081006030F6000030F7003F08E6
:1012D40086004008870042317608C03F7708C13F46
:1012E4003F088600400887000C3081003F088600D4
:1012F4004008870081177F29CB010800F5002030C2
:10130400F1007108F6007008F1000130F135890B25
:1013140088297508F2000130F235FF3E031D8E293D
:1013240072357107F3000130F335FF3E031D962932
:101334007335F4007408F607760886008701811374
:101344007008031DA629A729B1297535A03E86007A
:10135400013087007608C03F0030C13FB929753598
:10136400B03E860087017608C03F0030C13F760852
:101374008600870101137608043E86008701011761
:101384000800E0298B3104238931082A8B31042396
:101394008931013097319C278931082A8B31042304
:1013A4008931023097319C278931082A9731DE2709
:1013B4008931082A843120248931082A21005908D6
:1013C400003A0319E9297F3A0319032A082A58081D
:1013D400013A0319D829033A0319082A013A0319CF
:1013E400DC29063A0319082A773A0319082A013A2C
:1013F4000319C429073A0319D029013A0319C82942
:10140400082A5808FF3A0319082A082A0800210064
:10141400D101C901C601C501CB01D0017F30E7006C
:1014240030088600310887006708810504303006DB
:10143400B00000303106B1007F30E700300886008C
:10144400310887006708810504303006B000003099
:101454003106B1007F30E7003F088600400887006E
:1014640067088105BA01BB01BC012200A201A301E6
:10147400A4018D3133258A3103302100D800003096
:10148400D9000030DA000030DB000030DC00DD0081
:101494008931C3218A318E31BA268A3108002D3030
:1014A4002100E8006808CA005608FD39031D5B2ABC
:1014B4005C2A982A56363F39E8000130E835FF3E69
:1014C400031D602A6835203EE9006908D2005208ED
:1014D400BF00FF39031D0030C00004303F06BF00C9
:1014E40000304006C000520886008701010C890CB8
:1014F4000F390D3A031D7F2A802A942A5208023E8E
:1015040086008701403FF000413FF1000830F200BF
:101514000030F30060308831EA208A318A310922B0
:101524008A31A42A893148218A31A42AFD305605FA
:10153400E80004306806031DA02AA12AA42A8C31DD
:10154400BB248A3108002100C601C50102305006BF
:10155400031DAD2AAE2AD32A3F08013EF300003012
:10156400403DF40073088600740887000830810049
:101574006830F3000030F4003F088600400887001C
:1015840042317308C03F7408C13F3F0886004008D9
:101594008700483081003F08860040088700811793
:1015A400032B3C0820006702031DDC2A21003B08B2
:1015B400200066020318DF2AE02AE72A67082100D0
:1015C400BC00200066082100BB008C3146248A310F
:1015D4006830F3000030F400210030088600310840
:1015E400870042317308C03F7408C13F3008860049
:1015F40031088700483081003008860031088700B0
:10160400811708003D008E1C082B092B532B013039
:1016140088310E208B31662B3D033E04031D132BB2
:10162400142B192B0130883130208B31612B4B3036
:101634003D063E04031D1F2B202B252B0130883132
:101644000E208B31612B00303E02973003193D028E
:10165400031C2D2B2E2B312BBD01BE01612B612BC5
:101664003D033E04031D372B382B3D2B01308831BD
:1016740030208B31612B32303D063E04031D432B59
:10168400442B492B013088310E208B31612B0330E0
:101694003E02B73003193D02031C512B522B612B20
:1016A4002E2B21005308F300F4017408003A0319A7
:1016B4005C2B322B7308203A03190E2B322B01308A
:1016C4002100BD070030BE3D08002000E801E9010B
:1016D400B12B2100BA174E03031D712B722BC52B9E
:1016E4002000E814C52B2100BA17C52B2100BA1716
:1016F400200064080F39003A0319812B822BC52B73
:10170400E41B852B862B922B64080F390907A03E16
:10171400860001308700403FF200413FF3009C2BDC
:1017240064080F390907B03E86008701403FF20084
:10173400413FF3007208860073088700811FA32BC2
:10174400A42BC52B7208860073088700011DAB2BE0
:10175400AC2BC52B0130F0007008E800C52B6008E5
:101764001F39F000F1017108003A0319BA2BC52B97
:101774007008003A03196B2B013A0319752B033ACD
:101784000319782BC52B2100BA1FC92BCA2BD32BC5
:101794006830B8000030B9003A140230F000700824
:1017A400BB00080021004808031DD92BDA2B452C67
:1017B4000130F0007008C8004708031DE22BE32B3A
:1017C400452C0130F0007008C70002305006031D9C
:1017D400EC2BED2BFF2B30088600310887004131BC
:1017E40081013008860031088700483081003008C4
:1017F4008600310887008117452C5003031D032CF4
:10180400042C452CCB010830F000520A86008701D5
:10181400700881006030F0000030F1005208023E90
:10182400860087017008C03F7108C13F0430F00092
:1018340052088600870170088100520886008701DB
:101844008117CB01CB0A3F08013EF0000030403D38
:10185400F10070088600710887000830810060304C
:10186400F0000030F1003F08860040088700423154
:101874007008C03F7108C13F3F08860040088700D8
:1018840080308100452C08000830F0007008F20018
:10189400003021003C02083003193B020318532C8A
:1018A400542C692C3B08F0007008F2005108031D09
:1018B4005C2C5D2C602CD101D10A692C5103031DD1
:1018C400642C652C692C0230F0007008D100720879
:1018D400F000F1017008BB027108BC3B3008013E06
:1018E400F0000030313DF100700886007108870077
:1018F400720881006830F0007008CF003A18832C19
:10190400842CB52C9A2C38088400390885000008EA
:10191400F0004F0886008701700881000130B80785
:101924000030B93D0130F0007008CF070130F202F9
:101934007208031D9E2C9F2C852CBA2C3808840019
:10194400390885000008F0004F08860087017008F8
:1019540081000130B8070030B93D0130F000700853
:10196400CF070130F2027208031DB92CBA2CA02C47
:101974000800210030088600310887000030011B70
:101984000130F50004303006B00000303106B100FB
:1019940008305306031DCF2CD02CE52C2000620800
:1019A4007F393D00960016080319D92CDA2CE02C57
:1019B4001030F30073082100D300E52C0430F30049
:1019C40073082100D3005003031DE92CEA2C2A2DAF
:1019D4006830F3000030F4003008860031088700D6
:1019E40042317308C03F7408C13F8C3146248C31A6
:1019F400023021005106031D002D012D0D2D30084C
:101A040086003108870004308100300886003108E0
:101A140087008117322D7508031D112D122D1E2DDF
:101A2400300886003108870048308100300886007D
:101A3400310887008117322D30088600310887006D
:101A44000830810030088600310887008117322D64
:101A54002200A21F2E2D2F2D302DA2132100D001E4
:101A640008002000600E890C0339003A03193B2D4D
:101A74003C2D822DAE2DBA170830E5006508D30041
:101A8400AE2D8D31AF258D31AE2D8E3134268D3175
:101A9400AE2DD730B8000030B9003A14BB01BB0AF0
:101AA400BA17AE2D8B3167238D31AE2D8031442092
:101AB4008D31AE2D20006408B63E2100B8000130FF
:101AC400B9004F2DBA17200062082100E50020005C
:101AD4006408B63E86000130870021006508810055
:101AE400AE2D0230D8000030D9000030DA000030CA
:101AF400DB000030DC00DD008931C3218D31AE2DE7
:101B040061082100E500E6016608003A03198B2DFF
:101B1400AE2D6508003A0319542D013A0319582DC6
:101B2400023A0319582D063A03193D2D033A0319B5
:101B3400432D013A0319732D0F3A03194B2D013A22
:101B44000319472D033A03195C2D013A0319642D37
:101B5400073A0319AE2DAE2D080080302000600630
:101B6400031DB52DB62D332EC030F00070082100B2
:101B7400BA001F2E4E302100B8009830B900123040
:101B8400BB000030BC00332E6208031DCA2DCB2DD0
:101B9400FA2D6208F000F101F035F10D6A3070079A
:101BA40084009830713D8500003F2100B800013F5A
:101BB400B9003908F1003808F000023070078400D9
:101BC40071080318710A85000008F2007208BB004E
:101BD4003908F1003808F0000330700784007108F8
:101BE4000318710A85000008F2007208BC00332E45
:101BF4002100BA01332E033062020318022E032E91
:101C0400FA2D6208F000F101F035F10D6030700733
:101C140084009830713D8500003F2100B800013FE9
:101C2400B90038088400390885000008F000F10183
:101C34007008BB007108BC00332E20006308F0005C
:101C4400F1017108003A0319282EFA2D7008013A9F
:101C54000319BC2D033A0319C62D013A0319FD2DAE
:101C6400FA2D08002100BA170E30E0009930DF0089
:101C7400E1015F0886006008870081010130DF0709
:101C84000030E03D0130DE005E08E1070330610210
:101C9400031C4D2E4E2E3B2E2030F0000030F10060
:101CA4000030F200F3004030F4000030F5008531DC
:101CB40037258E313D000E172100E2016208B03E47
:101CC40086000130870081016208AC3E8600013045
:101CD400870081010130DE005E08E2070430620201
:101CE400031C752E762E602EB630F0000130F10004
:101CF4000030F200F3000330F4000030F5008531C9
:101D040037258E313D000E1328302100B0000030FD
:101D1400B1002030DE005E08D2005208BF00FF3957
:101D2400031D0030C000200062082100DE005E08B0
:101D3400D7005708031D9F2EA02EA52E1030DE00BD
:101D44005E08D300B92E0130D8000030D900D73056
:101D5400DA000030DB000130DC000030DD008931C6
:101D6400C3218E3120302100DE005E08D30008003C
:101D74003D000E122100BA1BC02EC12E082F2200D6
:101D8400A21FC52EC62ED72E0230F50075082100DD
:101D9400D0004508031DCF2ED02ED32E8A31A52284
:101DA4008E312100C701C801552F21003F08013E93
:101DB400F5000030403DF60075088600760887007F
:101DC400083081006030F5000030F6003F088600DE
:101DD4004008870042317508C03F7608C13F3F087C
:101DE4008600400887000C3081003F0886004008C8
:101DF400870081173008860031088700043081008D
:101E040030088600310887008117552F2000E01F15
:101E14000C2F0D2F242F2100D001D00A4608031DBA
:101E2400142F152F182F8A31A5228E312100C701B6
:101E3400C8014908031D1F2F202F552F8B31D42390
:101E44008E31552F0230F50075082100D0003F086F
:101E5400013EF5000030403DF60075088600760826
:101E64008700083081006030F5000030F6003F083C
:101E740086004008870042317508C03F7608C13F9C
:101E84003F08860040088700043081003F08860030
:101E9400400887008117C701C8014908031D532F53
:101EA400542F552F202F0800210052088600870147
:101EB400413FF5007508F200F30173082200240283
:101EC400031D662F720823020318692F6A2F6E2FD1
:101ED4002308F2007208F5007508F200F301720895
:101EE400A3027308A43BF4018A2F7408683E860099
:101EF40087010108F200200886008701720881002A
:101F04000130F2007208A0070130F2007208F407F1
:101F140075087402031C8F2F902F772F2308240435
:101F24000319952F962FCF2F21003F08013EF20071
:101F34000030403DF30072088600730887000830C3
:101F440081006830F2000030F3003F08860040084A
:101F5400870042317208C03F7308C13F52088600AF
:101F64008701011BB62FB72FC32F3F0886004008F7
:101F74008700483081003F088600400887008117A9
:101F8400FF2F3F08860040088700083081003F0883
:101F94008600400887008117FF2F21003F08013E7B
:101FA400F2000030403DF300720886007308870099
:101FB400083081006030F2000030F3003F088600F2
:101FC4004008870042317208C03F7308C13F3F0890
:101FD400860040088700043081003F0886004008DE
:101FE400870081172200A21321004908031DFB2F3B
:101FF400FC2FFF2F8B31D4238F3108000934023496
:1020040069340034033401340034C034FA340934FC
:102014000434003400340234033400340034003413
:102024000934213411340134003401342234573456
:102034000034073405348134033440340034033429
:102044000734053401340334403400340334093490
:1020540004340134003402340334003400340034D2
:1020640009342134113401340034013422341C3451
:102074000034073405348234033440340034643487
:10208400073405340234033440340034053409344D
:102094000434023400340234033400340034003491
:1020A4000934213411340134003401342234163417
:1020B4000034073405348334033440340034643446
:1020C4000734053403340334403400340134053414
:1020D400013409340434A134013417340134003494
:1020E400003480342734FF34FF34FF347F347534B4
:1020F40020349534013405340134093438348134BE
:102104000234153400342634FF34003435340034BA
:102114004634FF34003475340834953402340534BD
:10212400013409343034093431348134023405340F
:1021340009340934013495340134753408342634AF
:10214400FF340034153400348134023495340934B6
:10215400753408340934F0348134023415340034CD
:102164002634FF3400347534013495344034053456
:10217400013409344B3491340234C03434340334DC
:102184004D34003469340034633400347234003420
:102194006F340034633400346834003469340034F8
:1021A4007034003420340034543400346534003442
:1021B40063340034683400346E3400346F340034D3
:1021C4006C3400346F3400346734003479340034B0
:1021D40020340034493400346E3400346334003421
:0421E4002E34003461
:102EA000413442344334443445344634473448345E
:102EB00021008E110E100130240092004030940049
:102EC0002A30950008003D001215EF302100DE0089
:102ED0005E083D0090058E142100CD01CD0AC4018D
:102EE0007530D8000030D9000030DA000030DB0047
:102EF0000030DC00DD008931C3219731080001304A
:102F00002300A8070030A93D0030AA3D0030AB3DAA
:102F100021004D08031D8D2F8E2F9B2F0130F000B7
:102F20007008C4074408031D962F972F9B2FFF306E
:102F3000F0007008C4000800F50023008E01A92FDE
:102F4000013088315220973101308731ED27973198
:102F5000BC2F7508F300F4017408003A0319B12F6F
:102F6000BC2F7308003A0319A02F013A0319BC2F94
:102F7000033A0319BC2FBC2F08002100CD01743087
:102F8000D8000030D9000030DA000030DB0000301B
:102F9000DC00DD008931C32197313D008E10121114
:102FA000D72FFB302100DE005E083D009005101990
:102FB000DA2FDB2FD12F2100C40108002200AD0140
:102FC000AE01AB01AC01A901AA01A701A8011E3005
:102FD000FD007D08F70001308831742097311E30E4
:102FE000FD007D08F70002308831742097311E30D3
:102FF000FD007D08F7000330883174209731080008
:103000000534083409345234A13402341534003400
:1030100026340034013475340834953431340534A1
:10302000083409344B3409345334093455340934E1
:10303000543491340234C0341C3403344A340034E0
:103040006F34003479340034733400347434003411
:1030500069340034633400346B3400342034003479
:1030600044340034653400346D3400346F3400343B
:103070000534143409340234A134023415340034D4
:103080002634003401347534083495344034053422
:1030900014340934023491340234C034123401340B
:1030A000003402340034003400340834D83404349A
:1030B0005E3400340134003401340234003401340D
:1030C00066349834C03490341C3498340434033457
:0830D00009340434003490348B
:020000040001F9
:08000000FF3FFF3FFF3FFF3F00
:04000E00C20F4F3F8F
:00000001FF
