:04000000803108281B
:100008007E1480317E10090080310A284630840031
:100018009730850023001200C0001200C1001200B2
:10002800C2001200C3001200C4001200C500120072
:10003800C6001200C700B0308400003085002930A7
:10004800FE000030FF0097315727803120308400B0
:10005800013085001030FE000030FF00973157272F
:100068008031A0308400013085002030FE0000304F
:10007800FF009731572780317E10200089310329EE
:1000880020006203031D49284A28602860081F3998
:10009800003A031D5028512860282100BA17033060
:1000A80020006106031D59285A285E282100CF0127
:1000B800CF0A60282100CF0120006208031D6528AF
:1000C8006628AA2960081F39023A031D6C286D2882
:1000D800AA2964080F39003A031973287428AA2931
:1000E80064080F392100DF0004305F0203187D28FF
:1000F8007E28AA2920305406031D83288428AA298B
:10010800BA172000E41B89288A28A32864080F3915
:100118000907A03E860001308700403F2100E40027
:10012800413FE500200064080F39AC3E86000130ED
:10013800870001082100DF005F08E300BA2864088F
:100148000F390907B03E86008701403F2100E400CF
:10015800413FE500200064080F39B03E86000130B9
:10016800870001082100DF005F08E3006318BD284D
:10017800BE28C928FB30DF00FF30E00064085F05B7
:10018800E40065086005E500CF2804306404E40055
:1001980000306504E5002000E41BD328D428E128BA
:1001A80064080F390907A03E860001308700210046
:1001B8006408C03F6508C13FEC2864080F39090787
:1001C800B03E8600870121006408C03F6508C13F32
:1001D800033020006106031DF228F3281C292100A2
:1001E8006408860065088700811FFB28FC28102901
:1001F8002000E41B00290129092964080F39AC3EB5
:100208008600013087008114102964080F39B03E38
:100218008600013087008114210064088600650883
:100228008700011564088600650887008117AA29D8
:10023800043021006406E40000306506E500640827
:10024800860065088700811F2A292B2948297F30C5
:10025800DF0064088600650887005F088105640878
:1002680086006508870001170530D9000030DA00DC
:100278006508DC006408DB000230DD000030DE00C9
:100288008931B42180314D296408860065088700CA
:100298000117043021006406E40000306506E5001B
:1002A800E3185729582960296408860065088700DB
:1002B800811F5F2960298D292000E41B6429652995
:1002C8006D2964080F39AC3E860001308700811023
:1002D800742964080F39B03E860001308700811008
:1002E8003B302100DF0064088600650887005F084E
:1002F80081050530D9000030DA006508DC006408A3
:10030800DB000230DD000030DE008931B4218031AD
:1003180095293B30DF0064088600650887005F0880
:100328008105200064080F39983E2100DF00E001B4
:100338000E30E03D5F08E1006008E200FE30DF00BB
:1003480061088600620887005F08810508002100AF
:10035800C3013F0840040319B229B329BB293F0848
:10036800860040088700811BBA29BB29BD29C30123
:10037800C30A24001108F00070082200A900240014
:100388001513141CC829C929CA29102A141CCD29D7
:10039800CE29CF29102A141CD229D329D429102ACE
:1003A800141CD729D829D929102A141CDC29DD299D
:1003B800DE29102A141CE129E229E329102A141C39
:1003C800E629E729E829102A141CEB29EC29ED294C
:1003D800102A141CF029F129F229102A141CF529D5
:1003E800F629F729102A141CFA29FB29FC29102AB6
:1003F800141CFF29002A012A102A141C042A052A81
:10040800062A102A141C092A0A2A0B2A102A141C44
:100418000E2A0F2A102A102A141C132A142AED2A2D
:1004280055301106031D192A1A2AED2A7630910033
:10043800141C1F2A202A1C2A55301106031D252AA0
:10044800262AF12A2100430824009100141C2D2A91
:100458002E2A2A2A1108F00070082200A800240079
:100468009101141C382A392A352A1108F00070081D
:100478002200A7002100431C422A432AED2A220019
:10048800AC0124001108F00070082200A900240023
:10049800141C4F2A502A4B2A1108F000700821001A
:1004A800A0002400141C592A5A2A552A1108F000C1
:1004B80070082100A1002400141C632A642A5F2A02
:1004C8001108F00070082100A2002400141C6D2AF5
:1004D8006E2A692A1108F00070082100A300240080
:1004E800141C772A782A732A1108F0007008210052
:1004F800A4002400141C812A822A7D2A1108F000F5
:1005080070082100A5002400141C8B2A8C2A872A35
:100518001108F00070082100A6002400141C952A78
:10052800962A912A1108F00070082100A7002400DB
:10053800141C9F2AA02A9B2A1108F0007008210089
:10054800A8002400141CA92AAA2AA52A1108F00028
:1005580070082100A9002400141CB32AB42AAF2A69
:100568001108F00070082100AA002400141CBD2AFC
:10057800BE2AB92A1108F00070082100AB00240037
:10058800141CC72AC82AC32A1108F00070082100C1
:10059800AC002400141CD12AD22ACD2A1108F0005C
:1005A80070082100AD002400141CDB2ADC2AD72A9D
:1005B8001108F00070082100AE002400141CE52A80
:1005C800E62AE12A1108F00070082100AF00240093
:1005D8009101240091019513151308002100540876
:1005E800031DF72AF82A0A2B3D008E0192011630C6
:1005F80091009F3097007B309200032B8E158E1D43
:10060800062B072B022B2100D401D40A5403031D07
:100618000E2B0F2B1D2B3D008E1A132B142B1D2B6D
:10062800900192011214121602302100EB006B089F
:10063800D4003D00101D212B222B2F2B121D252B02
:10064800262B2F2BFB302100EB006B083D0090057B
:100658009731BD2782313D008E1C332B342B372B2D
:1006680020001211202C101C3A2B3B2B4C2B121C57
:100678003E2B3F2B4C2B8631DB2682310430210068
:10068800EB006B08D400FE30EB006B083D009005D2
:10069800101E4F2B502B572B121E532B542B572BFE
:1006A8009731632782313D00101F5B2B5C2B892B10
:1006B800121F5F2B602B702B73302100D900003084
:1006C800DA000030DB000030DC000130DD000030F3
:1006D800DE008931B4218231BF302100EB006B0884
:1006E8003D00900597317F27823121004B0803197F
:1006F8007E2B7F2B812B0130CB024B08031D852BD2
:10070800862B892B8B31C52382313D00901E8D2B82
:100718008E2B952B921E912B922B952B8831AA20EC
:1007280082313D00901C992B9A2BB02B921C9D2B4B
:100738009E2BB02BFF302100D9007F30DA0000302B
:10074800DB000030DC000130DD000030DE008931E4
:10075800B42182313D009301043021005402031872
:10076800B62BB72BBA2B20001211202C3D00921D5E
:10077800BE2BBF2B1E2C2100ED013D00901DC52B6B
:10078800C62B1E2C0F082100EB006B08D700570C56
:10079800EB00EB0C6B0C0F39EC006C08CD00F7305C
:1007A800EB006B083D00900521005719DC2BDD2B71
:1007B800ED2B4D08AC3E8600013087000108013959
:1007C800EB000130EB0601086B06FE396B06810071
:1007D800FC2B4D08B03E8600013087000108013926
:1007E800EB000130EB0601086B06FE396B06810051
:1007F8004D08031D002C012C052C8A314222823120
:10080800132C7230D9000030DA00D730DB0000300A
:10081800DC000030DD00DE008931B4218231013096
:100828002100EB006B08ED0704306D02031C1D2C42
:100838001E2CC12B200012110800200060081F394F
:10084800013A0319282C292C2A2C372D640803195E
:100858002E2C2F2C3B2C64030319332C342C3B2CCB
:10086800023064060319392C3A2C3B2C372D0630FC
:100878006106031D402C412CDD2CCA2C2100580395
:10088800031D472C482CDD2C200064086504031D3B
:100898004E2C4F2C5C2C12302100B8009030B9003F
:1008A8000930BB000030BC00C030F0007008BA004E
:1008B800200064036504031D622C632C702C323005
:1008C8002100B8009030B9000930BB000030BC00EE
:1008D800C030F0007008BA000230200064066504D9
:1008E800031D772C782CDD2C52302100B800903075
:1008F800B9000930BB000030BC00C030F0007008FF
:10090800BA00DD2C21005803031D8B2C8C2CDD2C08
:10091800200064086504031D922C932CA02C6930D8
:100928002100B8009030B9005730BB000030BC003F
:10093800C030F0007008BA00200064036504031D8D
:10094800A62CA72CB42C00302100B8009830B90090
:100958001C30BB000030BC00C030F0007008BA008A
:100968000230200064066504031DBB2CBC2CDD2C62
:1009780038302100B8009830B9001C30BB00003076
:10098800BC00C030F0007008BA00DD2C6308F0002D
:10099800F1017108003A0319D22CDD2C7008213AB4
:1009A8000319422C033A0319862C013A0319DD2C4A
:1009B800DD2C2000600E890C0339013A0319E52C5F
:1009C800E62C1B2D372DD6302100B8000030B90099
:1009D8000130BB000030BC00C130F0007008BA0024
:1009E800372D8030F00070082100BA00200063081D
:1009F800F00070082100D600372DD5302100B8004E
:100A08000030B9000130BB000030BC008130F0007C
:100A18007008BA00372D8030F00070082100BA0045
:100A280020006208F00070082100D500372D610809
:100A3800F000F1017108003A0319232D372D7008D1
:100A4800013A0319372D033A0319E72C013A031920
:100A5800012D0A3A0319372D033A0319F52C013AE7
:100A680003190F2D372D08002030210054020318D8
:100A78003E2D3F2D402D102E3D008E1C442D452D22
:100A8800462D102E21003F08400403194C2D4D2DF2
:100A9800552D3F08860040088700811B542D552D91
:100AA800982D22002C08031D5A2D5B2D982DB0304F
:100AB8008600213087000108FB007B082100A00088
:100AC800B03086002130870041310108FB007B08E7
:100AD800A100A20124001508FB007B082100A30047
:100AE80024001408FB007B082100A400EF308600D6
:100AF800213087000108FB007B08A5002200AC011B
:100B0800AC0AF001F00AA030F1000030F200103019
:100B1800FB007B08F30001308E31332685317108E4
:100B28002100C0007008BF0023003A083B040319E5
:100B38009E2D9F2DA72D3A0886003B088700811B14
:100B4800A62DA72DC02D22002B080319AC2DAD2DE5
:100B5800C02DAB01F0013030F1000130F20040301F
:100B6800FB007B08F30001308E3133268531710894
:100B78002300BB007008BA002300360837040319A5
:100B8800C62DC72DCF2D3608860037088700811B54
:100B9800CE2DCF2DE82D210044080319D42DD52DB5
:100BA800E82DC401F001B030F1002130F2004030EE
:100BB800FB007B08F30003308E3133268531710842
:100BC8002300B7007008B600230038083904031959
:100BD800EE2DEF2DF72D3808860039088700811B88
:100BE800F62DF72D102E22002D080319FC2DFD2DB2
:100BF800102EAD01F0013030F1002130F20031301B
:100C0800FB007B08F30002308E31332685317108F2
:100C18002300B9007008B80008007108FD007008CA
:100C2800FC0074087504031D1A2E1B2E1C2EDA2EC8
:100C38007C0886007D0887007208810074087C079C
:100C4800F60075087D3DF7007608FF3EF800FF3096
:100C5800773DF900780886007908870072088100D6
:100C68000030750203300319740203183C2E3D2E20
:100C78003E2EDA2E7C08013EF60000307D3DF7005E
:100C88007608860077088700720881007C08023E93
:100C9800F60000307D3DF70076088600770887006B
:100CA8007208810074087C07F60075087D3DF7001E
:100CB8007608FE3EF800FF30773DF9007808860098
:100CC800790887007208810074087C07F6007508A7
:100CD8007D3DF7007608FD3EF800FF30773DF900CE
:100CE800780886007908870072088100003075024C
:100CF8000730031974020318822E832E842EDA2EED
:100D08007C08033EF60000307D3DF700760886003B
:100D1800770887007208810074087C07F600750858
:100D28007D3DF7007608FC3EF800FF30773DF9007E
:100D380078088600790887007208810000307502FB
:100D48000930031974020318AA2EAB2EAC2EDA2E22
:100D58007C09F6007D09F700F60A0319F70A033043
:100D68007605FA0000307705FB007A08FC077B0857
:100D7800FD3D7A08F4027B08F53BFC30F405FF30B2
:100D8800F505D42E7C0886007D088700720881004E
:100D98000130F4020030F53B0130FC070030FD3D26
:100DA80074087504031DD92EDA2EC62E08002100FA
:100DB80012113D009301900198010E30F200993014
:100DC800F100F30171088600720887008101013083
:100DD800F1070030F23D0130F0007008F3070330EE
:100DE8007302031CF82EF92EE62E16303D009100F2
:100DF8009F3097007B309200F4017408F0000130B6
:100E0800F035FF3E031D042F7035203E8600870114
:100E18000030C03F0030C13FC23FC33F0130F00047
:100E28007008F40710307402031C1B2F1C2F012FAD
:100E38003D000E1796010E120E13F730F0007008E1
:100E480090052100BA012200A201A301A4013D00DE
:100E580090192F2F302F212F0130F000700821001A
:100E6800C9000130F0007008C800C701C601CE01F2
:100E7800F4017435B03E860087010030C03FC13FA1
:100E88007435A03E8600013087000030C03FC13F66
:100E98007408B03E86000130870081017408AC3EBA
:100EA80086000130870081010130F0007008F407E6
:100EB80004307402031C612F622F3D2F283021005B
:100EC800B0000030B10016303D009800003020001E
:100ED800A3006030A2000830A1000430F0007008C0
:100EE800A000A0172100D80100302300AB0000307B
:100EF800AA000030A9000030A8002100C501D401D3
:100F08000800210030088600310887000030011BE6
:100F18000130F50004303006B00000303106B10071
:100F280008305406031D992F9A2FAF2F200062080E
:100F38007F393D00960016080319A32FA42FAA2F66
:100F48001030F30073082100D400AF2F0430F300F1
:100F580073082100D4005103031DB32FB42FF42FBD
:100F68006830F3000030F40030088600310887004C
:100F780042317308C03F7408C13F8C313724873130
:100F8800023021005206031DCA2FCB2FD72F30085D
:100F98008600310887000430810030088600310857
:100FA80087008117FC2F7508031DDB2FDC2FE82F26
:100FB80030088600310887004830810030088600F4
:100FC800310887008117FC2F300886003108870018
:100FD8000830810030088600310887008117FC2F0F
:100FE8002200A21FF82FF92FFA2FA2132100D101F6
:020FF8000800EF
:10100A00F2007208F000F1017108003A03190E2883
:10101A0016287008003A03191628013A03191628E7
:10102A0016280800F200222822000E16382822006C
:10103A008E14382822000E1538287208F000F101A3
:10104A007108003A03192A2838287008003A031947
:10105A003828013A03191928033A03191C28013AB6
:10106A0003191F2838280800F200442821000E120C
:10107A005A2821008E105A2821000E115A28720867
:10108A00F000F1017108003A03194C285A28700837
:10109A00003A03195A28013A03193B28033A03195B
:1010AA003E28013A031941285A280800FC00771DF6
:1010BA005F2860286528F0017C0889317121883110
:1010CA00F71C682869286F28F001F00A7C08893122
:1010DA00712188317C08983EF800F9010E30F93DFB
:1010EA007808FA007908FB007A0886007B088700EE
:1010FA007708810008002100BF01C0012300BA015E
:10110A00BB01B801B901B601B7012100C40122002F
:10111A00AD01AC01AC0AAB011E30FD007D08F70041
:10112A00013088315B2088311E30FD007D08F700D0
:10113A00023088315B2088311E30FD007D08F700BF
:10114A00033088315B20883108003D00181CAE2826
:10115A00AF28D02821005308860087018030010675
:10116A00031DB828B928CE28300886003108870020
:10117A0084300106031DC228C328CE280C30F00093
:10118A00530886008701700881005308860087018A
:10119A0081173D001810DF30F00070089005080034
:1011AA00F8007108F6007008F5007808F400740871
:1011BA00F900F62875088600760887000108F40009
:1011CA007408F7000130F5070030F63D7708F4009F
:1011DA00790886008701740881000130F4007408D8
:1011EA00F9070130F2020030F33B720A031D0129AC
:1011FA00730A031D01290229DF28080021008E1421
:10120A000E110D302100EF002D30EE00D730890B82
:10121A000C29EE0B0C29EF0B0C29003297314E27C3
:10122A0089318631DB26893121000E1222000E1205
:10123A008131AB21893122000E168231F2228931A5
:10124A0020302100540203182B292C292D291B296F
:10125A003D008E1C3129322933291B298531382535
:10126A0089311B2980310828023021005106031DCB
:10127A003F29402944298F31562789317029D101C4
:10128A004C08031D49294A296F294108013EF600E5
:10129A000030423DF700760886007708870008305C
:1012AA0081006030F6000030F700410886004208ED
:1012BA00870042317608C03F7708C13F410886005F
:1012CA00420887000C3081004108860042088700E6
:1012DA0081177029CC010800F5002030F10071084F
:1012EA00F6007008F1000130F135890B792975088B
:1012FA00F2000130F235FF3E031D7F297235710776
:10130A00F3000130F335FF3E031D87297335F400DE
:10131A007408F60776088600870181137008031D92
:10132A0097299829A2297535A03E860001308700A1
:10133A007608C03F0030C13FAA297535B03E860005
:10134A0087017608C03F0030C13F760886008701D2
:10135A0001137608043E8600870101170800D12987
:10136A008A31F5228931F9298A31F5228931013008
:10137A0097319C278931F9298A31F522893102303E
:10138A0097319C278931F929883180208931F929B7
:10139A00843121248931F92921005A08003A031994
:1013AA00DA297F3A0319F429F9295908013A031964
:1013BA00C929033A0319F929013A0319CD29063A29
:1013CA000319F929773A0319F929013A0319B529B1
:1013DA00073A0319C129013A0319B929F929590800
:1013EA00FF3A0319F929F92908002100D201CA0193
:1013FA00C701C601CC01D1017F30E8003008860060
:10140A00310887006808810504303006B0000030D2
:10141A003106B1007F30E8003008860031088700C5
:10142A006808810504303006B00000303106B1008A
:10143A007F30E80041088600420887006808810575
:10144A00BA01BB01BC012200A201A301A4018C3193
:10145A00AC24893103302100D9000030DA00003091
:10146A00DB000030DC000030DD00DE008931B42111
:10147A0089318E31BA26893108002D302100E900E0
:10148A006908CB005708FD39031D4C2A4D2A892AC1
:10149A0057363F39E9000130E935FF3E031D512A2D
:1014AA006935203EEA006A08D3005308C100FF39B3
:1014BA00031D0030C20004304106C100003042065C
:1014CA00C200530886008701010C890C0F390D3AB6
:1014DA00031D702A712A852A5308023E8600870155
:1014EA00403FF000413FF1000830F2000030F300C5
:1014FA0060308831D5208A318931FA218A31952A9A
:10150A00893139218A31952AFD305705E90004309D
:10151A006906031D912A922A952A873185278A31DD
:10152A0008002100C701C60102305106031D9E2A88
:10153A009F2AC42A4108013EF3000030423DF400CC
:10154A007308860074088700083081006830F30049
:10155A000030F400410886004208870042317308CF
:10156A00C03F7408C13F41088600420887004830DE
:10157A00810041088600420887008117F42A3C0846
:10158A0020006702031DCD2A21003B0820006602C5
:10159A000318D02AD12AD82A67082100BC002000C3
:1015AA0066082100BB008C3137248A316830F30089
:1015BA000030F400210030088600310887004231EB
:1015CA007308C03F7408C13F30088600310887009D
:1015DA0048308100300886003108870081170800EA
:1015EA003D008E1CF92AFA2A442B01309731DE2756
:1015FA008A31572B3D033E04031D042B052B0A2B6E
:10160A000130883117208A31522B4B303D063E0477
:10161A00031D102B112B162B01309731DE278A312F
:10162A00522B00303E02973003193D02031C1E2B39
:10163A001F2B222BBD01BE01522B522B3D033E0410
:10164A00031D282B292B2E2B0130883117208A3194
:10165A00522B32303D063E04031D342B352B3A2BD8
:10166A0001309731DE278A31522B03303E02B730E0
:10167A0003193D02031C422B432B522B1F2B210023
:10168A005408F300F4017408003A03194D2B232B74
:10169A007308203A0319FF2A232B01302100BD07C2
:1016AA000030BE3D08002000E801E901A22B21001C
:1016BA00BA174F03031D622B632BB62B2000E814C5
:1016CA00B62B2100BA17B62B2100BA1720006408DE
:1016DA000F39003A0319722B732BB62BE41B762BA6
:1016EA00772B832B64080F390907A03E8600013047
:1016FA008700403FF200413FF3008D2B64080F3909
:10170A000907B03E86008701403FF200413FF300DF
:10171A007208860073088700811F942B952BB62BBD
:10172A007208860073088700011D9C2B9D2BB62B1F
:10173A000130F0007008E800B62B60081F39F0008D
:10174A00F1017108003A0319AB2BB62B7008003A65
:10175A0003195C2B013A0319662B033A0319692B07
:10176A00B62B2100BA1FBA2BBB2BC42B6830B8008A
:10177A000030B9003A140230F0007008BB000800CB
:10178A0021004908031DCA2BCB2B362C0130F0004F
:10179A007008C9004808031DD32BD42B362C0130FE
:1017AA00F0007008C80002305106031DDD2BDE2B45
:1017BA00F02B30088600310887004131810130085A
:1017CA0086003108870048308100300886003108D9
:1017DA0087008117362C5103031DF42BF52B362C69
:1017EA00CC010830F000530A860087017008810096
:1017FA006030F0000030F1005308023E8600870195
:10180A007008C03F7108C13F0430F00053088600D9
:10181A008701700881005308860087018117CC016F
:10182A00CC0A4108013EF0000030423DF100700848
:10183A00860071088700083081006030F0000030AF
:10184A00F100410886004208870042317008C03F13
:10185A007108C13F41088600420887008030810034
:10186A00362C08000830F0007008F2000030210021
:10187A003C02083003193B020318442C452C5A2C0D
:10188A003B08F0007008F2005208031D4D2C4E2C44
:10189A00512CD201D20A5A2C5203031D552C562C14
:1018AA005A2C0230F0007008D2007208F000F101E0
:1018BA007008BB027108BC3B3008013EF0000030E2
:1018CA00313DF100700886007108870072088100B6
:1018DA006830F0007008D0003A18742C752CA62CC9
:1018EA008B2C38088400390885000008F00050085D
:1018FA0086008701700881000130B8070030B93DC1
:10190A000130F0007008D0070130F2027208031D9E
:10191A008F2C902C762CAB2C380884003908850043
:10192A000008F00050088600870170088100013025
:10193A00B8070030B93D0130F0007008D007013017
:10194A00F2027208031DAA2CAB2C912C080020006D
:10195A00600E890C0339003A0319B42CB52CFB2C00
:10196A00272DBA170830E6006608D400272D8D31D6
:10197A0028258C31272D8D31AD258C31272DD83056
:10198A00B8000030B9003A14BB01BB0ABA17272DB8
:10199A008B3158238C31272D803144208C31272DCF
:1019AA0020006408BD3E2100B8000130B900C82CEF
:1019BA00BA17200062082100E60020006408BD3E34
:1019CA00860001308700210066088100272D023039
:1019DA00D9000030DA000030DB000030DC000030D3
:1019EA00DD00DE008931B4218C31272D6108210008
:1019FA00E600E7016708003A0319042D272D660857
:101A0A00003A0319CD2C013A0319D12C023A0319D1
:101A1A00D12C063A0319B62C033A0319BC2C013A05
:101A2A000319EC2C0F3A0319C42C013A0319C02CE0
:101A3A00033A0319D52C013A0319DD2C073A031985
:101A4A00272D272D0800803020006006031D2E2D2B
:101A5A002F2DAC2DC030F00070082100BA00982D4F
:101A6A004E302100B8009830B9001230BB00003067
:101A7A00BC00AC2D6208031D432D442D732D620852
:101A8A00F000F101F035F10D6A30700784009830EA
:101A9A00713D8500003F2100B800013FB9003908B7
:101AAA00F1003808F000023070078400710803184A
:101ABA00710A85000008F2007208BB003908F100BB
:101ACA003808F00003307007840071080318710A9F
:101ADA0085000008F2007208BC00AC2D2100BA0192
:101AEA00AC2D0330620203187B2D7C2D732D620806
:101AFA00F000F101F035F10D603070078400983084
:101B0A00713D8500003F2100B800013FB900380847
:101B1A008400390885000008F000F1017008BB0054
:101B2A007108BC00AC2D20006308F000F1017108B7
:101B3A00003A0319A12D732D7008013A0319352DA6
:101B4A00033A03193F2D013A0319762D732D080024
:101B5A002100BA170E30E1009930E000E201600876
:101B6A0086006108870081010130E0070030E13D0D
:101B7A000130DF005F08E20703306202031CC62D52
:101B8A00C72DB42D2030F0000030F1000030F200F3
:101B9A00F3004030F4000030F500863111268D3113
:101BAA003D000E172100E3016308B03E86000130B4
:101BBA00870081016308AC3E8600013087008101FD
:101BCA000130DF005F08E30704306302031CEE2DD7
:101BDA00EF2DD92DBD30F0000130F1000030F200B8
:101BEA00F3000330F4000030F500863111268D3100
:101BFA003D000E1328302100B0000030B100203023
:101C0A00DF005F08D3005308C100FF39031D00300D
:101C1A00C200200062082100DF005F08D8005808CF
:101C2A00031D182E192E1E2E1030DF005F08D40057
:101C3A00322E0130D9000030DA00D830DB00003013
:101C4A00DC000130DD000030DE008931B4218D3145
:101C5A0020302100DF005F08D4000800F800700877
:101C6A000319382E392E422E7835B03E8600870168
:101C7A00403FF900413FFA004B2E7835A03E8600DE
:101C8A0001308700403FF900413FFA0079087A04A1
:101C9A00031D502E512E542EF001F101B92EFF30A2
:101CAA007105F4007F307205F500790886007A081C
:101CBA00870042317408C03F7508C13F7908013E68
:101CCA00F40000307A3DF500740886007508870034
:101CDA00730881004030F400790886007A0887008A
:101CEA0074088105790886007A08870081157908C1
:101CFA0086007A088700811770080319852E862EB8
:101D0A009D2E7835B03E86008701403FF400413F62
:101D1A00F50004307406F60000307506F7007835D1
:101D2A00B03E860087017608C03F7708C13FB52ECE
:101D3A007835A03E860001308700403FF400413FDD
:101D4A00F50004307406F60000307506F7007835A1
:101D5A00A03E8600013087007608C03F7708C13F61
:101D6A007A08F1007908F00008003D000E122100FF
:101D7A00BA1BC02EC12E082F2200A21FC52EC62EA6
:101D8A00D72E0230F50075082100D1004608031D40
:101D9A00CF2ED02ED32E8A3196228E312100C80121
:101DAA00C901552F21004108013EF5000030423D8E
:101DBA00F6007508860076088700083081006030D2
:101DCA00F5000030F60041088600420887004231DB
:101DDA007508C03F7608C13F41088600420887005F
:101DEA000C308100410886004208870081173008BC
:101DFA0086003108870004308100300886003108E7
:101E0A0087008117552F2000E01F0C2F0D2F242F3C
:101E1A002100D101D10A4708031D142F152F182FAD
:101E2A008A3196228E312100C801C9014A08031D50
:101E3A001F2F202F552F8B31C5238E31552F02305E
:101E4A00F50075082100D1004108013EF500003077
:101E5A00423DF60075088600760887000830810042
:101E6A006030F5000030F60041088600420887001D
:101E7A0042317508C03F7608C13F410886004208D2
:101E8A0087000430810041088600420887008117D4
:101E9A00C801C9014A08031D532F542F552F202F5B
:101EAA0008002100530886008701413FF5007508A4
:101EBA00F200F301730822002402031D662F720840
:101ECA0023020318692F6A2F6E2F2308F200720863
:101EDA00F5007508F200F3017208A3027308A43B27
:101EEA00F4018A2F7408683E860087010108F2000F
:101EFA00200886008701720881000130F20072080A
:101F0A00A0070130F2007208F40775087402031C76
:101F1A008F2F902F772F230824040319952F962F9C
:101F2A00CF2F21004108013EF2000030423DF3006C
:101F3A007208860073088700083081006830F20052
:101F4A000030F300410886004208870042317208D7
:101F5A00C03F7308C13F530886008701011BB62F93
:101F6A00B72FC32F410886004208870048308100F6
:101F7A0041088600420887008117FF2F4108860022
:101F8A00420887000830810041088600420887001D
:101F9A008117FF2F21004108013EF2000030423D27
:101FAA00F3007208860073088700083081006030E9
:101FBA00F2000030F30041088600420887004231EF
:101FCA007208C03F7308C13F410886004208870073
:101FDA0004308100410886004208870081172200E8
:101FEA00A21321004A08031DFB2FFC2FFF2F8B3160
:101FFA00C5238F31080009340234693400340334AC
:10200A0001340034C034FA3409340434003400345E
:10201A0002340334003400340034093421341134D6
:10202A00013400340134223457340034073405347F
:10203A008134033440340034033407340534013422
:10204A000334403400340334093404340134003492
:10205A000234033400340034003409342134113496
:10206A0001340034013422341C340034073405347A
:10207A00823403344034003464340734053402347F
:10208A00033440340034053409340434023400344F
:10209A000234033400340034003409342134113456
:1020AA000134003401342234163400340734053440
:1020BA00833403344034003464340734053403343D
:1020CA00033440340034013405340134093404340F
:1020DA00A1340134173401340034003480342734F5
:1020EA00FF34FF34FF347F3475342034953401349F
:1020FA000534013409343834813402341534003457
:10210A002634FF340034353400344634FF34003486
:10211A0075340834953402340534013409343034C2
:10212A000934313481340234053409340934013430
:10213A0095340134753408342634FF3400341534A8
:10214A00003481340234953409347534083409343E
:10215A00F03481340234153400342634FF34003428
:10216A0075340134953440340534013409344B3420
:10217A0091340234C034343403344D340034693475
:10218A00003463340034723400346F3400346334FE
:10219A000034683400346934003470340034203434
:1021AA000034543400346534003463340034683401
:1021BA0000346E3400346F3400346C3400346F34BD
:1021CA00003467340034793400342034003449341C
:0E21DA0000346E340034633400342E3400348C
:102E8C004134423443344434453446344734483472
:102E9C0021008E150E14403024009400243095002F
:102EAC0008006400800101310130FE020030FF3B5C
:102EBC007F087E04031D582F00343D001215EF309F
:102ECC002100DF005F083D0090058E142100CE012B
:102EDC00CE0AC5017530D9000030DA000030DB00B5
:102EEC000030DC000030DD00DE008931B421973188
:102EFC00080001302300A8070030A93D0030AA3D8E
:102F0C000030AB3D21004E08031D8D2F8E2F9B2FC3
:102F1C000130F0007008C5074508031D962F972F48
:102F2C009B2FFF30F0007008C5000800F50023004F
:102F3C008E01A92F01308831392097310130883129
:102F4C0005209731BC2F7508F300F4017408003A82
:102F5C000319B12FBC2F7308003A0319A02F013AA3
:102F6C000319BC2F033A0319BC2FBC2F08002100F6
:102F7C00CE017430D9000030DA000030DB000030B4
:102F8C00DC000030DD00DE008931B42197313D00DA
:102F9C008E101211D72FFB302100DF005F083D008F
:102FAC0090051019DA2FDB2FD12F2100C501080055
:102FBC00F200E92F22000E12FF2F22008E10FF2F9D
:102FCC0022000E11FF2F7208F000F1017108003A77
:102FDC000319F12FFF2F7008003A0319FF2F013A44
:102FEC000319E02F033A0319E32F013A0319E62FD3
:102FFC00FF2F08000534083409345234A13402344C
:10300C0015340034263400340134753408349534C6
:10301C0031340534083409344B340934533409340D
:10302C0055340934543491340234C0341C340334D0
:10303C004A3400346F34003479340034733400343F
:10304C007434003469340034633400346B34003429
:10305C002034003444340034653400346D3400348E
:10306C006F3400340534143409340234A13402347E
:10307C001534003426340034013475340834953456
:10308C004034053414340934023491340234C034DD
:10309C001234013400340234003400340034083467
:1030AC00D83404345E340034013400340134023436
:1030BC000034013466349834C03490341C34983461
:0C30CC000434033409340434003490341C
:020000040001F9
:08000000FF3FFF3FFF3FFF3F00
:04000E00C20F4F3F8F
:00000001FF
