:04000000803108281B
:100008007E1480317E10090080310A282D3084004A
:100018009730850023001200BB001200BC001200BC
:10002800BD001200BE001200BF001200C000120086
:10003800C1001200C200B0308400003085002930B1
:10004800FE000030FF0097314027803120308400C7
:10005800013085001030FE000030FF009731402746
:100068008031A0308400013085001B30FE00003054
:10007800FF009731402780317E10200089310D29FB
:1000880020006203031D49284A28602860081F3998
:10009800003A031D5028512860282100BA17033060
:1000A80020006106031D59285A285E282100CF0127
:1000B800CF0A60282100CF0120006208031D6528AF
:1000C8006628AA2960081F39023A031D6C286D2882
:1000D800AA2964080F39003A031973287428AA2931
:1000E80064080F392100DF0004305F0203187D28FF
:1000F8007E28AA2920305406031D83288428AA298B
:10010800BA172000E41B89288A28A32864080F3915
:100118000907A03E860001308700403F2100E40027
:10012800413FE500200064080F39AC3E86000130ED
:10013800870001082100DF005F08E300BA2864088F
:100148000F390907B03E86008701403F2100E400CF
:10015800413FE500200064080F39B03E86000130B9
:10016800870001082100DF005F08E3006318BD284D
:10017800BE28C928FB30DF00FF30E00064085F05B7
:10018800E40065086005E500CF2804306404E40055
:1001980000306504E5002000E41BD328D428E128BA
:1001A80064080F390907A03E860001308700210046
:1001B8006408C03F6508C13FEC2864080F39090787
:1001C800B03E8600870121006408C03F6508C13F32
:1001D800033020006106031DF228F3281C292100A2
:1001E8006408860065088700811FFB28FC28102901
:1001F8002000E41B00290129092964080F39AC3EB5
:100208008600013087008114102964080F39B03E38
:100218008600013087008114210064088600650883
:100228008700011564088600650887008117AA29D8
:10023800043021006406E40000306506E500640827
:10024800860065088700811F2A292B2948297F30C5
:10025800DF0064088600650887005F088105640878
:1002680086006508870001170530D9000030DA00DC
:100278006508DC006408DB000230DD000030DE00C9
:100288008931B82180314D296408860065088700C6
:100298000117043021006406E40000306506E5001B
:1002A800E3185729582960296408860065088700DB
:1002B800811F5F2960298D292000E41B6429652995
:1002C8006D2964080F39AC3E860001308700811023
:1002D800742964080F39B03E860001308700811008
:1002E8003B302100DF0064088600650887005F084E
:1002F80081050530D9000030DA006508DC006408A3
:10030800DB000230DD000030DE008931B8218031A9
:1003180095293B30DF0064088600650887005F0880
:100328008105200064080F39983E2100DF00E001B4
:100338000E30E03D5F08E1006008E200FE30DF00BB
:1003480061088600620887005F0881050800B030F0
:10035800860021308700240016009100141CFE330B
:10036800110816009100141CFE33110816009100A4
:10037800141CFE33110816009100141CFE331108DA
:1003880016009100141CFE33110816009100141C6D
:10039800FE33110816009100141CFE3311081600D4
:1003A8009100141CFE33110816009100141CFE3332
:1003B800110816009100141CFE3311081600910054
:1003C800141CFE33110816009100141CFE3311088A
:1003D80016009100141CFE33110816009100141C1D
:1003E800FE33110816009100141CFE331108160084
:1003F8009100141CFE33110816009100141CFE33E2
:10040800110816009100141CFE3311081600910003
:10041800141CFE33110816009100141CFE33110839
:1004280016009100141CFE33110816009100141CCC
:10043800FE33110816009100141CFE331108160033
:100448009100141CFE33110816009100141CFE3391
:10045800110816009100141CFE33110816009100B3
:10046800141CFE33110816009100141CFE331108E9
:1004780016009100141CFE33110816009100141C7C
:10048800FE33110816009100141CFE3311081600E3
:100498009100141CFE33110816009100141CFE3341
:1004A800110816009100141CFE3311081600910063
:1004B800141CFE33110816009100141CFE33110899
:1004C80016009100141CFE33110816009100141C2C
:1004D800FE33110816009100141CFE331108160093
:1004E8009100141CFE33110816009100141CFE33F1
:1004F800110816009100141CFE3311081600910013
:10050800141CFE33110816009100141CFE33110848
:1005180016009100141CFE33110816009100141CDB
:10052800FE33110816009100141CFE331108160042
:100538009100141CFE33110816009100141CFE33A0
:10054800110816009100141CFE33110816009100C2
:10055800141CFE33110816009100141CFE331108F8
:1005680016009100141CFE33110816009100141C8B
:10057800FE33110816009100141CFE3311081600F2
:100588009100141CFE33110816009100141CFE3350
:10059800110816009100141CFE3311081600910072
:1005A800141CFE33110816009100141CFE331108A8
:1005B80016009100141CFE33110816009100141C3B
:1005C800FE33110816009100141CFE3311081600A2
:1005D8009100141CFE331108080021005408031D63
:1005E800F62AF72A092B3D008E0192011630910058
:1005F8009F3097007B309200022B8E158E1D052BA5
:10060800062B012B2100D401D40A5403031D0D2B02
:100618000E2B1C2B3D008E1A122B132B1C2B90011A
:1006280092011214121602302100EB006B08D4005C
:100638003D00101D202B212B2E2B121D242B252B8A
:100648002E2BFB302100EB006B083D009005973105
:100658009B2782313D008E1C322B332B362B2000FA
:1006680012111F2C101C392B3A2B4B2B121C3D2B13
:100678003E2B4B2B8631D926823104302100EB00EA
:100688006B08D400FE30EB006B083D009005101E8F
:100698004E2B4F2B562B121E522B532B562B97316A
:1006A8005E2782313D00101F5A2B5B2B882B121FAF
:1006B8005E2B5F2B6F2B73302100D9000030DA00DE
:1006C8000030DB000030DC000130DD000030DE00EF
:1006D8008931B8218231BF302100EB006B083D0021
:1006E800900588310120823121004B0803197D2BA8
:1006F8007E2B802B0130CB024B08031D842B852BCE
:10070800882B8B31C92382313D00901E8C2B8D2B79
:10071800942B921E902B912B942B8831B4208231EC
:100728003D00901C982B992BAF2B921C9C2B9D2B3A
:10073800AF2BFF302100D9007F30DA000030DB001A
:100748000030DC000130DD000030DE008931B821E6
:1007580082313D0093010430210054020318B52B67
:10076800B62BB92B200012111F2C3D00921DBD2B5A
:10077800BE2B1D2C2100ED013D00901DC42BC52B67
:100788001D2C0F082100EB006B08D700570CEB005D
:10079800EB0C6B0C0F39EC006C08CD00F730EB005C
:1007A8006B083D00900521005719DB2BDC2BEC2B47
:1007B8004D08AC3E86000130870001080139EB0086
:1007C8000130EB0601086B06FE396B068100FB2B36
:1007D8004D08B03E86000130870001080139EB0062
:1007E8000130EB0601086B06FE396B0681004D08E7
:1007F800031DFF2B002C042C8A3146228231122C37
:100808007230D9000030DA00D730DB000030DC006D
:100818000030DD00DE008931B8218231013021004D
:10082800EB006B08ED0704306D02031C1C2C1D2C1B
:10083800C02B200012110800200060081F39013A5F
:100848000319272C282C292C362D640803192D2C44
:100858002E2C3A2C64030319322C332C3A2C0230F8
:1008680064060319382C392C3A2C362D06306106CB
:10087800031D3F2C402CDC2CC92C21005803031DE0
:10088800462C472CDC2C200064086504031D4D2CE5
:100898004E2C5B2C12302100B8009030B900093082
:1008A800BB000030BC00C030F0007008BA00200067
:1008B80064036504031D612C622C6F2C3230210007
:1008C800B8009030B9000930BB000030BC00C0301F
:1008D800F0007008BA000230200064066504031DA9
:1008E800762C772CDC2C52302100B8009030B900DF
:1008F8000930BB000030BC00C030F0007008BA00FE
:10090800DC2C21005803031D8A2C8B2CDC2C2000A6
:1009180064086504031D912C922C9F2C69302100DA
:10092800B8009030B9005730BB000030BC00C03070
:10093800F0007008BA00200064036504031DA52CAC
:10094800A62CB32C00302100B8009830B9001C3018
:10095800BB000030BC00C030F0007008BA000230A4
:10096800200064066504031DBA2CBB2CDC2C38302F
:100978002100B8009830B9001C30BB000030BC0022
:10098800C030F0007008BA00DC2C6308F000F101F8
:100998007108003A0319D12CDC2C7008213A03198C
:1009A800412C033A0319852C013A0319DC2CDC2C61
:1009B8002000600E890C0339013A0319E42CE52C58
:1009C8001A2D362DD6302100B8000030B90001307C
:1009D800BB000030BC00C130F0007008BA00362DF2
:1009E8008030F00070082100BA0020006308F00091
:1009F80070082100D600362DD5302100B80000300F
:100A0800B9000130BB000030BC008130F000700834
:100A1800BA00362D8030F00070082100BA0020009E
:100A28006208F00070082100D500362D6108F0003A
:100A3800F1017108003A0319222D362D7008013A88
:100A48000319362D033A0319E62C013A0319002D30
:100A58000A3A0319362D033A0319F42C013A0319FB
:100A68000E2D362D080020302100540203183D2D8C
:100A78003E2D3F2D0E2E3D008E1C432D442D452D21
:100A88000E2E22002B082C0403194B2D4C2D542D0F
:100A98002B0886002C088700811B532D542D972D79
:100AA800210041080319592D5A2D972DB030860081
:100AB800213087000108FB007B08A000B0308600C9
:100AC8002130870041310108FB007B08A100440860
:100AD800FB007B08A20024001508FB007B0821000E
:100AE800A30024001408FB007B082100A400EF30B9
:100AF8008600213087000108FB007B08A500C101A2
:100B0800F001F00AA030F1000030F2001030FB00D4
:100B18007B08F30001308E313326853171082200BD
:100B2800AC007008AB00220029082A0403199D2D87
:100B38009E2DA62D290886002A088700811BA52D31
:100B4800A62DBE2D2E080319AA2DAB2DBE2DAE0144
:100B5800F0013030F1000130F2004030FB007B083A
:100B6800F30001308E313326853171082200AA0046
:100B78007008A9002300360837040319C42DC52DB1
:100B8800CD2D3608860037088700811BCC2DCD2D4A
:100B9800E62D210043080319D22DD32DE62DC301DC
:100BA800F001B030F1002130F2004030FB007B084A
:100BB800F30003308E313326853171082300B700E6
:100BC8007008B6002200270828040319EC2DED2D23
:100BD800F52D2708860028088700811BF42DF52DA0
:100BE8000E2E210042080319FA2DFB2D0E2EC201EC
:100BF800F0013030F1002130F2003130FB007B0889
:100C0800F30002308E313326853171082200A800A6
:100C18007008A70008007108FD007008FC0074083F
:100C28007504031D182E192E1A2ED82E7C0886003E
:100C38007D0887007208810074087C07F600750833
:100C48007D3DF7007608FF3EF800FF30773DF9005C
:100C580078088600790887007208810000307502DC
:100C680003300319740203183A2E3B2E3C2ED82E5B
:100C78007C08013EF60000307D3DF70076088600CE
:100C880077088700720881007C08023EF600003071
:100C98007D3DF70076088600770887007208810096
:100CA80074087C07F60075087D3DF7007608FE3E5F
:100CB800F800FF30773DF90078088600790887004A
:100CC8007208810074087C07F60075087D3DF700FE
:100CD8007608FD3EF800FF30773DF9007808860079
:100CE80079088700720881000030750207300319FF
:100CF80074020318802E812E822ED82E7C08033E83
:100D0800F60000307D3DF7007608860077088700FA
:100D18007208810074087C07F60075087D3DF700AD
:100D28007608FC3EF800FF30773DF9007808860029
:100D380079088700720881000030750209300319AC
:100D480074020318A82EA92EAA2ED82E7C09F60004
:100D58007D09F700F60A0319F70A03307605FA0049
:100D680000307705FB007A08FC077B08FD3D7A0810
:100D7800F4027B08F53BFC30F405FF30F505D22E74
:100D88007C0886007D088700720881000130F40223
:100D98000030F53B0130FC070030FD3D7408750458
:100DA800031DD72ED82EC42E0800210012113D0095
:100DB8009301900198010E30F2009930F100F3018F
:100DC800710886007208870081010130F107003040
:100DD800F23D0130F0007008F30703307302031C82
:100DE800F62EF72EE42E16303D0091009F30970026
:100DF8007B309200F4017408F0000130F035FF3EBA
:100E0800031D022F7035203E860087010030C03F49
:100E18000030C13FC23FC33F0130F0007008F40703
:100E280010307402031C192F1A2FFF2E3D000E17C5
:100E380096010E120E13F730F0007008900521008D
:100E4800BA012200A201A301A4013D0090192D2F8F
:100E58002E2F1F2F0130F00070082100C90001302B
:100E6800F0007008C800C701C601CE01F40174354E
:100E7800B03E860087010030C03FC13F7435A03EB8
:100E88008600013087000030C03FC13F7408B03E83
:100E980086000130870081017408AC3E860001306D
:100EA800870081010130F0007008F40704307402F3
:100EB800031C5F2F602F3B2F28302100B00000302B
:100EC800B10016303D00980000302000A3006030CB
:100ED800A2000830A1000430F0007008A000A0179C
:100EE8002100D80100302300AB000030AA000030F8
:100EF800A9000030A8002100C501D4010800200085
:100F0800600E890C0339003A03198B2F8C2FD22FCE
:100F1800FE2FBA170830E6006608D400FE2F8D3180
:100F280028258731FE2F8D31AD258731FE2FD8300A
:100F3800B8000030B9003A14BB01BB0ABA17FE2F3B
:100F48008B315C238731FE2F803144208731FE2F7F
:100F580020006408B83E2100B8000130B9009F2F76
:100F6800BA17200062082100E60020006408B83E95
:100F7800860001308700210066088100FE2F0230BC
:100F8800D9000030DA000030DB000030DC0000302F
:100F9800DD00DE008931B8218731FE2F610821008C
:100FA800E600E7016708003A0319DB2FFE2F660801
:100FB800003A0319A42F013A0319A82F023A03197A
:100FC800A82F063A03198D2F033A0319932F013AD4
:100FD8000319C32F0F3A03199B2F013A0319972FAF
:100FE800033A0319AC2F013A0319B42F073A03192E
:060FF800FE2FFE2F080091
:1010020001302300A8070030A93D0030AA3D00307E
:10101200AB3D21004E08031D0F2810281D2801306A
:10102200F0007008C5074508031D182819281D2857
:10103200FF30F0007008C5000800F20029282100E6
:101042000E123F2821008E103F2821000E113F284A
:101052007208F000F1017108003A031931283F28A3
:101062007008003A03193F28013A03192028033A6D
:1010720003192328013A031926283F280800FC00F7
:10108200771D442845284A28F0017C0889317521BA
:101092008831F71C4D284E285428F001F00A7C08AC
:1010A2008931752188317C08983EF800F9010E30AB
:1010B200F93D7808FA007908FB007A0886007B0877
:1010C200870077088100080023003508803AF00085
:1010D20083307002031D6F28E8303402031872282F
:1010E2007328792801302300B4070030B53D8A28DF
:1010F2002300B401B50120008E118131AB2188316A
:10110200203024009100141C87288828842820007D
:101112008E1508002200AB01AC01A901AA01A701AA
:10112200A8012300B601B7012100C301C201C10118
:101132002200AE011E30FD007D08F700013088312B
:10114200402088311E30FD007D08F70002308831D2
:10115200402088311E30FD007D08F70003308831C1
:101162004020883108003D00181CB828B928DA2828
:10117200210053088600870180300106031DC22822
:10118200C328D82830088600310887008430010639
:10119200031DCC28CD28D8280C30F0005308860037
:1011A20087017008810053088600870181173D007E
:1011B2001810DF30F000700890050800F800710880
:1011C200F6007008F5007808F4007408F9000029A8
:1011D20075088600760887000108F4007408F70095
:1011E2000130F5070030F63D7708F40079088600F3
:1011F2008701740881000130F4007408F907013096
:10120200F2020030F33B720A031D0B29730A031D1D
:101212000B290C29E928080021008E140E110D302B
:101222002100EF002D30EE00D730890B1629EE0B8E
:101232001629EF0B1629003297313527893186316D
:10124200D92689318831652089318231F12289316B
:1012520020302100540203182F2930293129232953
:101262003D008E1C3529362937292329853137251A
:101272008931232980310828023021005106031DBB
:101282004329442948298F31562789317429D101AC
:101292004C08031D4D294E2973293F08013EF600D3
:1012A2000030403DF7007608860077088700083056
:1012B20081006030F6000030F7003F0886004008E9
:1012C200870042317608C03F7708C13F3F08860059
:1012D200400887000C3081003F08860040088700E4
:1012E20081177429CC010800F5002030F100710843
:1012F200F6007008F1000130F135890B7D2975087F
:10130200F2000130F235FF3E031D83297235710769
:10131200F3000130F335FF3E031D8B297335F400D2
:101322007408F60776088600870181137008031D8A
:101332009B299C29A6297535A03E8600013087008D
:101342007608C03F0030C13FAE297535B03E8600F9
:1013520087017608C03F0030C13F760886008701CA
:1013620001137608043E8600870101170800D5297B
:101372008A31F9228931FD298A31F92289310130F4
:1013820097317A278931FD298A31F9228931023050
:1013920097317A278931FD2988318B208931FD29BE
:1013A200843120248931FD2921005A08003A031989
:1013B200DE297F3A0319F829FD295908013A031950
:1013C200CD29033A0319FD29013A0319D129063A15
:1013D2000319FD29773A0319FD29013A0319B9299D
:1013E200073A0319C529013A0319BD29FD295908EC
:1013F200FF3A0319FD29FD2908002100D201CA0183
:10140200C701C601CC01D1017F30E8003008860057
:10141200310887006808810504303006B0000030CA
:101422003106B1007F30E8003008860031088700BD
:101432006808810504303006B00000303106B10082
:101442007F30E8003F088600400887006808810571
:10145200BA01BB01BC012200A201A301A401873190
:101462008327893103302100D9000030DA000030AF
:10147200DB000030DC000030DD00DE008931B82105
:1014820089318E31BA26893108002D302100E900D8
:101492006908CB005708FD39031D502A512A8D2AAD
:1014A20057363F39E9000130E935FF3E031D552A21
:1014B2006935203EEA006A08D3005308BF00FF39AD
:1014C200031D0030C00004303F06BF00003040065C
:1014D200C000530886008701010C890C0F390D3AB0
:1014E200031D742A752A892A5308023E8600870141
:1014F200403FF000413FF1000830F2000030F300BD
:1015020060308831DF208A318931FE218A31992A7F
:1015120089313D218A31992AFD305705E90004308D
:101522006906031D952A962A992A8C31B0248A319C
:1015320008002100C701C60102305106031DA22A7C
:10154200A32AC82A3F08013EF3000030403DF400C0
:101552007308860074088700083081006830F30041
:101562000030F4003F0886004008870042317308CB
:10157200C03F7408C13F3F088600400887004830DA
:1015820081003F088600400887008117F82A3C083E
:1015920020006702031DD12A21003B0820006602B9
:1015A2000318D42AD52ADC2A67082100BC002000AF
:1015B20066082100BB008C313B248A316830F3007D
:1015C2000030F400210030088600310887004231E3
:1015D2007308C03F7408C13F300886003108870095
:1015E20048308100300886003108870081170800E2
:1015F2003D008E1CFD2AFE2A482B01309731BC2764
:101602008A315B2B3D033E04031D082B092B0E2B55
:1016120001309731DE278A31562B4B303D063E048E
:10162200031D142B152B1A2B01309731BC278A313D
:10163200562B00303E02973003193D02031C222B29
:10164200232B262BBD01BE01562B562B3D033E04F8
:10165200031D2C2B2D2B322B01309731DE278A31A3
:10166200562B32303D063E04031D382B392B3E2BC0
:1016720001309731BC278A31562B03303E02B730F6
:1016820003193D02031C462B472B562B232B21000B
:101692005408F300F4017408003A0319512B272B64
:1016A2007308203A0319032B272B01302100BD07B1
:1016B2000030BE3D08002000E801E901A62B210010
:1016C200BA174F03031D662B672BBA2B2000E814B1
:1016D200BA2B2100BA17BA2B2100BA1720006408CE
:1016E2000F39003A0319762B772BBA2BE41B7A2B8E
:1016F2007B2B872B64080F390907A03E8600013037
:101702008700403FF200413FF300912B64080F39FC
:101712000907B03E86008701403FF200413FF300D7
:101722007208860073088700811F982B992BBA2BA9
:101732007208860073088700011DA02BA12BBA2B0B
:101742000130F0007008E800BA2B60081F39F00081
:10175200F1017108003A0319AF2BBA2B7008003A55
:101762000319602B013A03196A2B033A03196D2BF3
:10177200BA2B2100BA1FBE2BBF2BC82B6830B80072
:101782000030B9003A140230F0007008BB000800C3
:1017920021004908031DCE2BCF2B3A2C0130F0003B
:1017A2007008C9004808031DD72BD82B3A2C0130EA
:1017B200F0007008C80002305106031DE12BE22B35
:1017C200F42B30088600310887004131810130084E
:1017D20086003108870048308100300886003108D1
:1017E200870081173A2C5103031DF82BF92B3A2C51
:1017F200CC010830F000530A86008701700881008E
:101802006030F0000030F1005308023E860087018C
:101812007008C03F7108C13F0430F00053088600D1
:101822008701700881005308860087018117CC0167
:10183200CC0A3F08013EF0000030403DF100700844
:10184200860071088700083081006030F0000030A7
:10185200F1003F0886004008870042317008C03F0F
:101862007108C13F3F088600400887008030810030
:101872003A2C08000830F0007008F2000030210015
:101882003C02083003193B020318482C492C5E2CF9
:101892003B08F0007008F2005208031D512C522C34
:1018A200552CD201D20A5E2C5203031D592C5A2CFC
:1018B2005E2C0230F0007008D2007208F000F101D4
:1018C2007008BB027108BC3B3008013EF0000030DA
:1018D200313DF100700886007108870072088100AE
:1018E2006830F0007008D0003A18782C792CAA2CB5
:1018F2008F2C38088400390885000008F000500851
:1019020086008701700881000130B8070030B93DB8
:101912000130F0007008D0070130F2027208031D96
:10192200932C942C7A2CAF2C38088400390885002B
:101932000008F0005008860087017008810001301D
:10194200B8070030B93D0130F0007008D00701300F
:10195200F2027208031DAE2CAF2C952C0800210058
:1019620030088600310887000030011B0130F50085
:1019720004303006B00000303106B10008305406A1
:10198200031DC42CC52CDA2C200062087F393D00CF
:10199200960016080319CE2CCF2CD52C1030F3004C
:1019A20073082100D400DA2C0430F30073082100FC
:1019B200D4005103031DDE2CDF2C1F2D6830F300F1
:1019C2000030F40030088600310887004231730885
:1019D200C03F7408C13F8C313B248C31023021005E
:1019E2005206031DF52CF62C022D30088600310814
:1019F2008700043081003008860031088700811793
:101A0200272D7508031D062D072D132D300886007E
:101A1200310887004830810030088600310887008D
:101A22008117272D30088600310887000830810091
:101A320030088600310887008117272D2200A21F57
:101A4200232D242D252DA2132100D1010800803041
:101A520020006006031D2E2D2F2DAC2DC030F0006E
:101A620070082100BA00982D4E302100B80098303D
:101A7200B9001230BB000030BC00AC2D6208031D5F
:101A8200432D442D732D6208F000F101F035F10D64
:101A92006A30700784009830713D8500003F210054
:101AA200B800013FB9003908F1003808F0000230EF
:101AB2007007840071080318710A85000008F2009B
:101AC2007208BB003908F1003808F00003307007D3
:101AD200840071080318710A85000008F200720878
:101AE200BC00AC2D2100BA01AC2D033062020318F8
:101AF2007B2D7C2D732D6208F000F101F035F10D84
:101B02006030700784009830713D8500003F2100ED
:101B1200B800013FB9003808840039088500000880
:101B2200F000F1017008BB007108BC00AC2D200070
:101B32006308F000F1017108003A0319A12D732D19
:101B42007008013A0319352D033A03193F2D013A62
:101B52000319762D732D08002100BA170E30E1000B
:101B62009930E000E2016008860061088700810187
:101B72000130E0070030E13D0130DF005F08E2079D
:101B820003306202031CC62DC72DB42D2030F00095
:101B92000030F1000030F200F3004030F400003079
:101BA200F50086310F268D313D000E172100E3012D
:101BB2006308B03E86000130870081016308AC3EB5
:101BC20086000130870081010130DF005F08E307F2
:101BD20004306302031CEE2DEF2DD92DB830F00036
:101BE2000130F1000030F200F3000330F400003065
:101BF200F50086310F268D313D000E13283021006D
:101C0200B0000030B1002030DF005F08D30053087D
:101C1200BF00FF39031D0030C00020006208210010
:101C2200DF005F08D8005808031D182E192E1E2E3B
:101C32001030DF005F08D400322E0130D9000030AE
:101C4200DA00D830DB000030DC000130DD0000308B
:101C5200DE008931B8218D3120302100DF005F089C
:101C6200D4000800F80070080319382E392E422ECD
:101C72007835B03E86008701403FF900413FFA00C7
:101C82004B2E7835A03E860001308700403FF90098
:101C9200413FFA0079087A04031D502E512E542E2A
:101CA200F001F101B92EFF307105F4007F307205A9
:101CB200F500790886007A08870042317408C03F2F
:101CC2007508C13F7908013EF40000307A3DF50005
:101CD2007408860075088700730881004030F4009C
:101CE200790886007A0887007408810579088600D9
:101CF2007A0887008115790886007A08870081179B
:101D020070080319852E862E9D2E7835B03E8600EA
:101D12008701403FF400413FF50004307406F600AD
:101D220000307506F7007835B03E860087017608E8
:101D3200C03F7708C13FB52E7835A03E86000130FE
:101D42008700403FF400413FF50004307406F6007E
:101D520000307506F7007835A03E86000130870016
:101D62007608C03F7708C13F7A08F1007908F00091
:101D720008003D000E122100BA1BC02EC12E082FF2
:101D82002200A21FC52EC62ED72E0230F5007508DE
:101D92002100D1004608031DCF2ED02ED32E8A312A
:101DA2009A228E312100C801C901552F21003F0816
:101DB200013EF5000030403DF600750886007608C9
:101DC2008700083081006030F5000030F6003F08DF
:101DD20086004008870042317508C03F7608C13F3F
:101DE2003F088600400887000C3081003F088600CB
:101DF20040088700811730088600310887000430C8
:101E0200810030088600310887008117552F200095
:101E1200E01F0C2F0D2F242F2100D101D10A4708DA
:101E2200031D142F152F182F8A319A228E3121006B
:101E3200C801C9014A08031D1F2F202F552F8B31BE
:101E4200C9238E31552F0230F50075082100D100CB
:101E52003F08013EF5000030403DF600750886005F
:101E620076088700083081006030F5000030F60007
:101E72003F0886004008870042317508C03F760857
:101E8200C13F3F08860040088700043081003F08B8
:101E92008600400887008117C801C9014A08031D4E
:101EA200532F542F552F202F08002100530886004E
:101EB2008701413FF5007508F200F3017308220023
:101EC2002402031D662F720823020318692F6A2F4A
:101ED2006E2F2308F2007208F5007508F200F30174
:101EE2007208A3027308A43BF4018A2F7408683EA7
:101EF200860087010108F200200886008701720827
:101F020081000130F2007208A0070130F20072086D
:101F1200F40775087402031C8F2F902F772F230864
:101F220024040319952F962FCF2F21003F08013E3D
:101F3200F2000030403DF30072088600730887000B
:101F4200083081006830F2000030F3003F0886005C
:101F52004008870042317208C03F7308C13F5308EE
:101F620086008701011BB62FB72FC32F3F088600BB
:101F720040088700483081003F08860040088700FB
:101F82008117FF2F3F088600400887000830810034
:101F92003F088600400887008117FF2F21003F0875
:101FA200013EF2000030403DF300720886007308E3
:101FB2008700083081006030F2000030F3003F08F3
:101FC20086004008870042317208C03F7308C13F53
:101FD2003F08860040088700043081003F088600E1
:101FE2004008870081172200A21321004A08031D1E
:101FF200FB2FFC2FFF2F8B31C9238F3108000934AF
:10200200023469340034033401340034C034FA3405
:10201200093404340034003402340334003400340C
:1020220000340934213411340134003401342234AF
:1020320057340034073405348134033440340034D7
:102042000334073405340134033440340034033498
:1020520009340434013400340234033400340034CB
:10206200003409342134113401340034013422346F
:102072001C340034073405348234033440340034D1
:1020820064340734053402340334403400340534F4
:10209200093404340234003402340334003400348A
:1020A200003409342134113401340034013422342F
:1020B2001634003407340534833403344034003496
:1020C20064340734053403340334403400340134B7
:1020D2000534013409340434A13401341734013491
:1020E2000034003480342734FF34FF34FF347F342B
:1020F20075342034953401340534013409343834CC
:1021020081340234153400342634FF34003435343B
:1021120000344634FF3400347534083495340234C4
:102122000534013409343034093431348134023411
:1021320005340934093401349534013475340834D2
:102142002634FF340034153400348134023495349B
:102152000934753408340934F034813402341534C6
:1021620000342634FF34003475340134953440345D
:102172000534013409344B3491340234C0343434DC
:1021820003344D340034693400346334003472341F
:1021920000346F34003463340034683400346934FA
:1021A2000034703400342034003454340034653444
:1021B200003463340034683400346E3400346F34D5
:1021C20000346C3400346F340034673400347934B2
:1021D200003420340034493400346E340034633423
:0621E20000342E3400342D
:102E5A0041344234433444344534463447344834A4
:102E6A0021008E110E10013024009200403094008F
:102E7A002A30950008006400800101310130FE0209
:102E8A000030FF3B7F087E04031D412F0034F2000F
:102E9A007208F000F1017108003A0319552F5D2FED
:102EAA007008003A03195D2F013A03195D2F5D2F4F
:102EBA0008003D001215EF302100DF005F083D00D9
:102ECA0090058E142100CE01CE0AC5017530D900B5
:102EDA000030DA000030DB000030DC000030DD00BA
:102EEA00DE008931B82197310800F50023008E01F0
:102EFA00872F013088311E209731013097314C27B6
:102F0A0097319A2F7508F300F4017408003A0319EF
:102F1A008F2F9A2F7308003A03197E2F013A03194B
:102F2A009A2F033A03199A2F9A2F08002100CE01EB
:102F3A007430D9000030DA000030DB000030DC00E9
:102F4A000030DD00DE008931B82197313D008E1056
:102F5A001211B52FFB302100DF005F083D009005FC
:102F6A001019B82FB92FAF2F2100C5010800F200A0
:102F7A00C72F22000E12DD2F22008E10DD2F220015
:102F8A000E11DD2F7208F000F1017108003A0319E1
:102F9A00CF2FDD2F7008003A0319DD2F013A0319EC
:102FAA00BE2F033A0319C12F013A0319C42FDD2F8B
:102FBA000800F200E92F22000E16FF2F22008E14BD
:102FCA00FF2F22000E15FF2F7208F000F101710881
:102FDA00003A0319F12FFF2F7008003A0319FF2F47
:102FEA00013A0319E02F033A0319E32F013A0319AF
:102FFA00E62FFF2F08000534083409345234A1346F
:10300A00023415340034263400340134753408345B
:10301A00953431340534083409344B340934533483
:10302A00093455340934543491340234C0341C34CC
:10303A0003344A3400346F3400347934003473343E
:10304A0000347434003469340034633400346B342B
:10305A0000342034003444340034653400346D3490
:10306A0000346F3400340534143409340234A13482
:10307A0002341534003426340034013475340834EB
:10308A00953440340534143409340234913402340A
:10309A00C0341234013400340234003400340034B1
:1030AA000834D83404345E34003401340034013432
:1030BA0002340034013466349834C03490341C34F9
:0E30CA00983404340334093404340034903450
:020000040001F9
:08000000FF3FFF3FFF3FFF3F00
:04000E00C20F4F3F8F
:00000001FF
