:04000000803108281B
:100008007E1480317E10090080310A28B0308400C7
:10001800003085002A30FE000030FF008831B02013
:10002800803120308400013085002230FE0000300D
:10003800FF008831B02080317E10200089311329DB
:1000480020006203031D29282A28402860081F3938
:10005800003A031D3028312840282100BA17033000
:1000680020006106031D39283A283E282100D001C6
:10007800D00A40282100D00120006208031D45282D
:1000880046288A2960081F39023A031D4C284D2842
:100098008A2964080F39003A0319532854288A29F1
:1000A80064080F392100E0000430600203185D285D
:1000B8005E288A2920305506031D632864288A296A
:1000C800BA172000E41B69286A28832864080F39B6
:1000D8000907203E860001308700403F2100E500E7
:1000E800413FE600200064080F39333E86000130A6
:1000F800870001082100E0006008E4009A286408ED
:100108000F390907B03E86008701403F2100E5000E
:10011800413FE600200064080F39373E8600013071
:10012800870001082100E0006008E40064189D28A9
:100138009E28A928FB30E000FF30E1006508600533
:10014800E50066086105E600AF2804306504E500AF
:1001580000306604E6002000E41BB328B428C12858
:1001680064080F390907203E860001308700210006
:100178006508C03F6608C13FCC2864080F390907E5
:10018800B03E8600870121006508C03F6608C13F70
:10019800033020006106031DD228D328FC28210043
:1001A8006508860066088700811FDB28DC28F028A0
:1001B8002000E41BE028E128E92864080F39333ED1
:1001C8008600013087008114F02864080F39373E13
:1001D80086000130870081142100650886006608C2
:1001E80087000115650886006608870081178A2937
:1001F800043021006506E50000306606E600650863
:10020800860066088700811F0A290B2928297F3064
:10021800E0006508860066088700600881056508B3
:1002280086006608870001170530DA000030DB0019
:100238006608DD006508DC000230DE000030DF0003
:100248008B31092380312D296508860066088700CF
:100258000117043021006506E50000306606E60057
:10026800E418372938294029650886006608870078
:10027800811F3F2940296D292000E41B4429452975
:100288004D2964080F39333E8600013087008110FC
:10029800542964080F39373E8600013087008110E1
:1002A8003B302100E000650886006608870060088A
:1002B80081050530DA000030DB006608DD006508DE
:1002C800DC000230DE000030DF008B310923803192
:1002D80075293B30E00065088600660887006008DD
:1002E8008105200064080F39983E2100E000E101F3
:1002F8000E30E13D6008E2006108E300FE30E000F6
:1003080062088600630887006008810508002100EC
:100318005508031D90299129A3293D008E019201BA
:10032800163091009F3097007B3092009C298E15E3
:100338008E1D9F29A0299B292100D501D50A550387
:10034800031DA729A829B6293D008E1AAC29AD2975
:10035800B629900192011214121602302100EC0005
:100368006C08D5003D00101DBA29BB29C829121DEB
:10037800BE29BF29C829FB302100EC006C083D00CC
:1003880090058931312181313D008E1CCC29CD2940
:10039800D02920001211B92A101CD329D429E52903
:1003A800121CD729D829E5298531722581310430D5
:1003B8002100EC006C08D500FE30EC006C083D0014
:1003C8009005101EE829E929F029121EEC29ED29CB
:1003D800F0298831BC2081313D00101FF429F5290E
:1003E800222A121FF829F929092A73302100DA0074
:1003F8000030DB000030DC000030DD000130DE00C2
:100408000030DF008B3109238131BF302100EC003F
:100418006C083D0090058831D820813121004C08B6
:100428000319172A182A1A2A0130CC024C08031D6E
:100438001E2A1F2A222A8D311A2581313D00901E3D
:10044800262A272A2E2A921E2A2A2B2A2E2A8A313F
:10045800352281313D00901C322A332A492A921CC8
:10046800362A372A492AFF302100DA007F30DB009C
:100478000030DC000030DD000130DE000030DF003D
:100488008B31092381313D0093010430210055024D
:1004980003184F2A502A532A20001211B92A3D0066
:1004A800921D572A582AB72A2100EE013D00901DB7
:1004B8005E2A5F2AB72A0F082100EC006C08D800D2
:1004C800580CEC00EC0C6C0C0F39ED006D08CE00EC
:1004D800F730EC006C083D00900521005819752A8A
:1004E800762A862A4E08333E8600013087000108A6
:1004F8000139EC000130EC0601086C06FE396C0687
:100508008100952A4E08373E860001308700010891
:100518000139EC000130EC0601086C06FE396C0666
:1005280081004E08031D992A9A2A9E2A8B31972307
:100538008131AC2A7230DA000030DB00D830DC00C0
:100548000030DD000030DE00DF008B31092381310F
:1005580001302100EC006C08EE0704306E02031C29
:10056800B62AB72A5A2A200012110800200060086B
:100578001F39013A0319C12AC22AC32AD02B640899
:100588000319C72AC82AD42A64030319CC2ACD2AF6
:10059800D42A023064060319D22AD32AD42AD02BAB
:1005A80006306106031DD92ADA2A762B632B21002F
:1005B8005903031DE02AE12A762B2000640865040C
:1005C800031DE72AE82AF52A12302100B8009030E6
:1005D800B9000930BB000030BC00C030F000700822
:1005E800BA00200064036504031DFB2AFC2A092BBA
:1005F80032302100B8009030B9000930BB0000301B
:10060800BC00C030F0007008BA0002302000640658
:100618006504031D102B112B762B52302100B800D6
:100628009030B9000930BB000030BC00C030F00089
:100638007008BA00762B21005903031D242B252BA3
:10064800762B200064086504031D2B2B2C2B392BDB
:1006580069302100B8009030B9005730BB00003035
:10066800BC00C030F0007008BA00200064036504C4
:10067800031D3F2B402B4D2BF4302100B800903048
:10068800B9001C30BB000030BC00C030F00070085E
:10069800BA000230200064066504031D542B552B54
:1006A800762B2C302100B8009130B9001C30BB00EB
:1006B8000030BC00C030F0007008BA00762B630828
:1006C800F000F1017108003A03196B2B762B7008C2
:1006D800213A0319DB2A033A03191F2B013A03199C
:1006E800762B762B2000600E890C0339013A03190A
:1006F8007E2B7F2BB42BD02BD7302100B8000030B5
:10070800B9000130BB000030BC00C130F0007008F7
:10071800BA00D02B8030F00070082100BA00200009
:100728006308F00070082100D700D02BD6302100D4
:10073800B8000030B9000130BB000030BC00813087
:10074800F0007008BA00D02B8030F000700821004B
:10075800BA0020006208F00070082100D600D02BF3
:100768006108F000F1017108003A0319BC2BD02B85
:100778007008013A0319D02B033A0319802B013A68
:1007880003199A2B0A3A0319D02B033A03198E2B13
:10079800013A0319A82BD02B08002030210055025C
:1007A8000318D72BD82BD92BA72C3D008E1CDD2B5B
:1007B800DE2BDF2BA72C2100410842040319E52B6F
:1007C800E62BEE2B4108860042088700811BED2BA3
:1007D800EE2B362C01308831F5208331013A031D88
:1007E800F62BF72B102C0230FB007B082100A6000B
:1007F800F001F00AA030F1000030F2001030FB00E8
:100808007B08F300013087316227833171082100AA
:10081800C2007008C100362C21004508FB007B0887
:10082800A0000130FB007B08C507A101D03086007D
:100838002030870043310108FB007B08A200F0014B
:10084800F00AA030F1000030F2001030FB007B0805
:10085800F300013087316227833171082100C2001B
:100868007008C1003F08400403193B2C3C2C442C61
:100878003F08860040088700811B432C442C562CD7
:10088800F001D030F1002030F2004030FB007B084E
:10089800F300013087316227833171082100C000DD
:1008A8007008BF0022003B083C0403195C2C5D2C37
:1008B800652C3B0886003C088700811B642C652C4E
:1008C800772CF001D030F1002130F2004030FB00ED
:1008D8007B08F300033087316227833171082200D7
:1008E800BC007008BB003D083E0403197C2C7D2C1D
:1008F800852C3D0886003E088700811B842C852CAA
:10090800A72C973024006006031D8B2C8C2C912C6F
:1009180003308931E5218331952C03308931BD219C
:100928008331F0013030F1000230F2003130FB0049
:100938007B08F30002308731622783317108220077
:10094800BE007008BD0008007108FD007008FC00BA
:1009580074087504031DB12CB22CB32C712D7C08BE
:1009680086007D0887007208810074087C07F600FD
:1009780075087D3DF7007608FF3EF800FF30773DAB
:10098800F90078088600790887007208810000302D
:1009980075020330031974020318D32CD42CD52CF8
:1009A800712D7C08013EF60000307D3DF700760889
:1009B800860077088700720881007C08023EF600EE
:1009C80000307D3DF70076088600770887007208BA
:1009D800810074087C07F60075087D3DF7007608ED
:1009E800FE3EF800FF30773DF90078088600790868
:1009F80087007208810074087C07F60075087D3D41
:100A0800F7007608FD3EF800FF30773DF9007808DA
:100A18008600790887007208810000307502073067
:100A2800031974020318192D1A2D1B2D712D7C081A
:100A3800033EF60000307D3DF70076088600770813
:100A480087007208810074087C07F60075087D3DF0
:100A5800F7007608FC3EF800FF30773DF90078088B
:100A68008600790887007208810000307502093015
:100A7800031974020318412D422D432D712D7C0951
:100A8800F6007D09F700F60A0319F70A0330760520
:100A9800FA0000307705FB007A08FC077B08FD3D6B
:100AA8007A08F4027B08F53BFC30F405FF30F505C5
:100AB8006B2D7C0886007D08870072088100013054
:100AC800F4020030F53B0130FC070030FD3D7408AE
:100AD8007504031D702D712D5D2D08002100121164
:100AE8003D009301900198010E30F2009930F10019
:100AF800F301710886007208870081010130F1074F
:100B08000030F23D0130F0007008F3070330730243
:100B1800031C8F2D902D7D2D16303D0091009F30A8
:100B280097007B309200F4017408F0000130F03532
:100B3800FF3E031D9B2D7035203E86008701003047
:100B4800C03F0030C13FC23FC33F0130F0007008D2
:100B5800F40710307402031CB22DB32D982D3D00FC
:100B68000E1796010E120E13F730F000700890055C
:100B78002100BA012200AA01AB01AC013D00901985
:100B8800C62DC72DB82D0130F00070082100CA000D
:100B98000130F0007008C900C801C701CF01F40195
:100BA8007435B03E860087010030C03FC13F7435C0
:100BB800203E8600013087000030C03FC13F7408E6
:100BC800373E86000130870081017408333E860075
:100BD8000130870081010130F0007008F40704300B
:100BE8007402031CF82DF92DD42D28302100B000F3
:100BF8000030B10016303D00980000302000A300FE
:100C08006030A2000830A1000430F0007008A00095
:100C1800A0172100D90100302200B2000030B10035
:100C28000030B0000030AF002100C601D501080037
:100C38002100540886008701413FF5007508F2003D
:100C4800F301730822002C02031D2C2E72082B02BC
:100C580003182F2E302E342E2B08F2007208F500C0
:100C68007508F200F3017208AB027308AC3BF4019B
:100C7800502E7408683E860087010108F200280893
:100C880086008701720881000130F2007208A80707
:100C98000130F2007208F40775087402031C552E1F
:100CA800562E3D2E2B082C0403195B2E5C2E952EF8
:100CB80021004308013EF2000030443DF300720871
:100CC800860073088700083081006830F200003021
:100CD800F300430886004408870042317208C03F89
:100CE8007308C13F540886008701011B7C2E7D2EA6
:100CF800892E43088600440887004830810043084D
:100D08008600440887008117C52E430886004408DA
:100D1800870008308100430886004408870081174F
:100D2800C52E21004308013EF2000030443DF30087
:100D38007208860073088700083081006030F2006E
:100D48000030F300430886004408870042317208E7
:100D5800C03F7308C13F4308860044088700043039
:100D68008100430886004408870081172200AA13DF
:100D780021004B08031DC12EC22EC52E8D311A2508
:100D8800863108003D000E122100BA1BCC2ECD2E54
:100D9800142F2200AA1FD12ED22EE32E0230F500E6
:100DA80075082100D2004708031DDB2EDC2EDF2E3C
:100DB8008B31EB2386312100C901CA01612F210043
:100DC8004308013EF5000030443DF60075088600F2
:100DD80076088700083081006030F5000030F600A2
:100DE800430886004408870042317508C03F7608EA
:100DF800C13F43088600440887000C30810043083F
:100E0800860044088700811730088600310887006B
:100E18000430810030088600310887008117612F6F
:100E28002000E01F182F192F302F2100D201D20ADD
:100E38004808031D202F212F242F8B31EB238631C7
:100E48002100C901CA014B08031D2B2F2C2F612F2C
:100E58008D311A258631612F0230F5007508210081
:100E6800D2004308013EF5000030443DF600750805
:100E7800860076088700083081006030F500003071
:100E8800F600430886004408870042317508C03FD1
:100E98007608C13F43088600440887000430810073
:100EA80043088600440887008117C901CA014B0816
:100EB800031D5F2F602F612F2C2F0800F80070088A
:100EC8000319672F682F712F7835B03E8600870188
:100ED800403FF900413FFA007A2F7835203E8600DE
:100EE80001308700403FF900413FFA0079087A0451
:100EF800031D7F2F802F832FF001F101E82FFF3092
:100F08007105F4007F307205F500790886007A08CB
:100F1800870042317408C03F7508C13F7908013E17
:100F2800F40000307A3DF5007408860075088700E3
:100F3800730881004030F400790886007A08870039
:100F480074088105790886007A0887008115790870
:100F580086007A088700811770080319B42FB52F07
:100F6800CC2F7835B03E86008701403FF400413FE2
:100F7800F50004307406F60000307506F700783581
:100F8800B03E860087017608C03F7708C13FE42F4E
:100F98007835203E860001308700403FF400413F0D
:100FA800F50004307406F60000307506F700783551
:100FB800203E8600013087007608C03F7708C13F91
:100FC8007A08F1007908F0000800F2007208F000D1
:100FD800F1017108003A0319F22FFA2F7008003A4C
:0E0FE8000319FA2F013A0319FA2FFA2F080005
:101160006400800101310130FE020030FF3B7F0846
:101170007E04031DB12800343D001215EF3021001C
:10118000E00060083D0090058E142100CF01CF0AD9
:10119000C6017530DA000030DB000030DC000030C2
:1011A000DD000030DE00DF008B31092388310800CC
:1011B00001302200AF070030B03D0030B13D0030BB
:1011C000B23D21004F08031DE628E728F42801302E
:1011D000F0007008C6074608031DEF28F028F42821
:1011E000FF30F0007008C6000800F20023008E01F6
:1011F0000229031020008E1D03140030093D12291E
:10120000003012297208F000F1017108003A031948
:101210000A2900297008003A03190029013A031924
:10122000F92800290800003089317521893185317C
:101230007225893181318B2189312030210055027D
:1012400003182329242925291A293D008E1C292920
:101250002A292B291A298331D12389311A2980314E
:1012600008282100CF017430DA000030DB000030A4
:10127000DC000030DD000030DE00DF008B310923B0
:1012800089313D008E1012114B29FB302100E00006
:1012900060083D00900510194E294F29452921006D
:1012A000C60108002100C101C201BF01C001220026
:1012B000BD01BE01BB01BC011E30FD007D08F70071
:1012C00001308931982189311E30FD007D08F700F9
:1012D00002308931982189311E30FD007D08F700E8
:1012E00003308931982189310800F50084290130C3
:1012F0008A310D22893103308A310D228931013042
:101300008731E927893197297508F300F4017408BA
:10131000003A03198C2997297308003A0319772991
:10132000013A03199729033A0319972997290800C5
:10133000FC00771D9C299D29A229F0017C088A3197
:10134000C6228931F71CA529A629AC29F001F00A8B
:101350007C088A31C62289317C08983EF800F90160
:101360000E30F93D7808FA007908FB007A0886000B
:101370007B088700770881000800F200CB29220053
:101380000E12E42922008E10E42922000E11E42915
:1013900022008E11E4297208F000F1017108003A70
:1013A0000319D329E4297008003A0319E429013A02
:1013B0000319BF29033A0319C229013A0319C529A0
:1013C000073A0319C829E4290800F200F32922008A
:1013D0000E160C2A22008E140C2A22000E150C2A3E
:1013E00022008E150C2A7208F000F1017108003AF3
:1013F0000319FB290C2A7008003A03190C2A013A38
:101400000319E729033A0319EA29013A0319ED29D7
:10141000073A0319F0290C2A0800F2001B2A2100C0
:101420000E12342A21008E10342A21000E11342A83
:1014300021008E11342A7208F000F1017108003A7F
:101440000319232A342A7008003A0319342A013A6E
:1014500003190F2A033A0319122A013A0319152A0C
:10146000073A0319182A342A08003D00181C392AA3
:101470003A2A5B2A21005408860087018030010641
:10148000031D432A442A592A300886003108870060
:1014900084300106031D4D2A4E2A592A0C30F000D3
:1014A000540886008701700881005408860087016F
:1014B00081173D001810DF30F0007008900508001B
:1014C000F8007108F6007008F5007808F400740858
:1014D000F900812A75088600760887000108F40063
:1014E0007408F7000130F5070030F63D7708F40086
:1014F000790886008701740881000130F4007408BF
:10150000F9070130F2020030F33B720A031D8C2A06
:10151000730A031D8C2A8D2A6A2A080002302100D2
:101520005206031D942A952A992A86311C268A314F
:10153000C52AD2014D08031D9E2A9F2AC42A4308AA
:10154000013EF6000030443DF7007608860077083B
:101550008700083081006030F6000030F700430853
:1015600086004408870042317608C03F7708C13FB3
:1015700043088600440887000C3081004308860039
:10158000440887008117C52ACD010800F5002030E6
:10159000F1007108F6007008F1000130F135890B97
:1015A000CE2A7508F2000130F235FF3E031DD42A21
:1015B00072357107F3000130F335FF3E031DDC2A5D
:1015C0007335F4007408F6077608860087018113E6
:1015D0007008031DEC2AED2AF72A7535203E860097
:1015E000013087007608C03F0030C13FFF2A7535C3
:1015F000B03E860087017608C03F0030C13F7608C4
:101600008600870101137608043E860087010117D2
:101610000800262B8C314A248B314E2B8C314A24E6
:101620008B310130893175218B314E2B8C314A241D
:101630008B310230893175218B314E2B893152210A
:101640008B314E2B8231BA228B314E2B21005B081D
:10165000003A03192F2B7F3A0319492B4E2B5A08B6
:10166000013A03191E2B033A03194E2B013A0319B1
:10167000222B063A03194E2B773A03194E2B013AC7
:1016800003190A2B073A0319162B013A03190E2BDB
:101690004E2B5A08FF3A03194E2B4E2B08002100FF
:1016A000D301CB01C801C701CD01D2017F30E900D0
:1016B000300886003108870069088105043030064B
:1016C000B00000303106B1007F30E90030088600FC
:1016D000310887006908810504303006B000003009
:1016E0003106B1007F30E9004308860044088700D6
:1016F00069088105BA01BB01BC012200AA01AB0146
:10170000AC018E3179268B3103302100DA000030B4
:10171000DB000030DC000030DD000030DE00DF00E8
:101720008B3109238B318631C6268B3108002D3051
:101730002100EA006A08CC005808FD39031DA12BDE
:10174000A22BDE2B58363F39EA000130EA35FF3E46
:10175000031DA62B6A35203EEB006B08D40054080D
:10176000C300FF39031D0030C40004304306C3002A
:1017700000304406C400540886008701010C890C1F
:101780000F390D3A031DC52BC62BDA2B5408023E28
:1017900086008701403FF000413FF1000830F20031
:1017A0000030F30060308A3160228B318B314F235F
:1017B0008B31EA2B8A318E228B31EA2BFD30580592
:1017C000EA0004306A06031DE62BE72BEA2B8E3174
:1017D00001268B3108002100C801C70102305206E2
:1017E000031DF32BF42B192C4308013EF3000030AA
:1017F000443DF400730886007408870008308100B7
:101800006830F3000030F400430886004408870085
:1018100042317308C03F7408C13F43088600440842
:1018200087004830810043088600440887008117FC
:10183000492C3C0820006702031D222C21003B0894
:10184000200066020318252C262C2D2C6708210069
:10185000BC00200066082100BB008D318C258B3137
:101860006830F3000030F4002100300886003108B1
:10187000870042317308C03F7408C13F30088600BA
:101880003108870048308100300886003108870021
:10189000811708003D008E1C4E2C4F2C992C0130D6
:1018A0008931BD218C31AC2C3D033E04031D592CE4
:1018B0005A2C5F2C01308931E5218C31A72C4B301B
:1018C0003D063E04031D652C662C6B2C01308931CE
:1018D000BD218C31A72C00303E02973003193D0208
:1018E000031C732C742C772CBD01BE01A72CA72CD4
:1018F0003D033E04031D7D2C7E2C832C0130893159
:10190000E5218C31A72C32303D063E04031D892C85
:101910008A2C8F2C01308931BD218C31A72C0330CA
:101920003E02B73003193D02031C972C982CA72CBC
:10193000742C21005508F300F4017408003A0319CF
:10194000A22C782C7308203A0319542C782C0130DF
:101950002100BD070030BE3D08002000E801E9017C
:10196000F72C2100BA175003031DB72CB82C0B2DF0
:101970002000E8140B2D2100BA170B2D2100BA17F7
:10198000200064080F39003A0319C72CC82C0B2D0E
:10199000E41BCB2CCC2CD82C64080F390907203E33
:1019A000860001308700403FF200413FF300E22C07
:1019B00064080F390907B03E86008701403FF200F6
:1019C000413FF3007208860073088700811FE92CED
:1019D000EA2C0B2D7208860073088700011DF12C7C
:1019E000F22C0B2D0130F0007008E8000B2D600880
:1019F0001F39F000F1017108003A0319002D0B2D79
:101A00007008003A0319B12C013A0319BB2C033AB0
:101A10000319BE2C0B2D2100BA1F0F2D102D192DCF
:101A20006830B8000030B9003A140230F000700895
:101A3000BB00080021004A08031D1F2D202D8B2DFF
:101A40000130F0007008CA004908031D282D292D17
:101A50008B2D0130F0007008C90002305206031DC2
:101A6000322D332D452D3008860031088700413155
:101A70008101300886003108870048308100300835
:101A800086003108870081178B2D5203031D492DD5
:101A90004A2D8B2DCD010830F000540A86008701B5
:101AA000700881006030F0000030F1005408023E00
:101AB000860087017008C03F7108C13F0430F00004
:101AC0005408860087017008810054088600870149
:101AD0008117CD01CD0A4308013EF0000030443D9E
:101AE000F1007008860071088700083081006030BE
:101AF000F0000030F10043088600440887004231BE
:101B00007008C03F7108C13F430886004408870041
:101B1000803081008B2D08000830F0007008F20042
:101B2000003021003C02083003193B020318992DB4
:101B30009A2DAF2D3B08F0007008F2005308031DEA
:101B4000A22DA32DA62DD301D30AAF2D5303031D20
:101B5000AA2DAB2DAF2D0230F0007008D300720813
:101B6000F000F1017008BB027108BC3B3008013E77
:101B7000F0000030313DF1007008860071088700E8
:101B8000720881006830F0007008D1003A18C92D41
:101B9000CA2DFB2DE02D3808840039088500000887
:101BA000F000510886008701700881000130B807F5
:101BB0000030B93D0130F0007008D1070130F20269
:101BC0007208031DE42DE52DCB2D002E380884006E
:101BD000390885000008F000510886008701700868
:101BE00081000130B8070030B93D0130F0007008C5
:101BF000D1070130F2027208031DFF2D002EE62DE1
:101C00000800210030088600310887000030011BE1
:101C10000130F50004303006B00000303106B1006C
:101C200008305506031D152E162E2B2E2000620897
:101C30007F393D009600160803191F2E202E262EF0
:101C40001030F30073082100D5002B2E0430F30070
:101C500073082100D5005203031D2F2E302E702E45
:101C60006830F3000030F400300886003108870047
:101C700042317308C03F7408C13F8D318C258E31CD
:101C8000023021005306031D462E472E532E3008E6
:101C90008600310887000430810030088600310852
:101CA00087008117782E7508031D572E582E642E35
:101CB00030088600310887004830810030088600EF
:101CC000310887008117782E300886003108870098
:101CD0000830810030088600310887008117782E8F
:101CE0002200AA1F742E752E762EAA132100D2016F
:101CF00008002000600E890C0339003A0319812E78
:101D0000822EC82EF42EBA170830E7006708D500D7
:101D1000F42E8E31F5268E31F42E8F317A278E31C6
:101D2000F42ED930B8000030B9003A14BB01BB0A18
:101D3000BA17F42E8C31AD248E31F42E803124204C
:101D40008E31F42E200064083F3E2100B80001309F
:101D5000B900952EBA17200062082100E700200084
:101D600064083F3E8600013087002100670881003B
:101D7000F42E0230DA000030DB000030DC000030EE
:101D8000DD000030DE00DF008B3109238E31F42EC0
:101D900061082100E700E8016808003A0319D12E24
:101DA000F42E6708003A03199A2E013A03199E2E61
:101DB000023A03199E2E063A0319832E033A031999
:101DC000892E013A0319B92E0F3A0319912E013ABF
:101DD00003198D2E033A0319A22E013A0319AA2ED4
:101DE000073A0319F42EF42E080080302000600614
:101DF000031DFB2EFC2E792FC030F000700821004F
:101E0000BA00652F42302100B8009130B90012307D
:101E1000BB000030BC00792F6208031D102F112F6A
:101E2000402F6208F000F101F035F10D5E307007CF
:101E300084009130713D8500003F2100B800013FD2
:101E4000B9003908F1003808F0000230700784004A
:101E500071080318710A85000008F2007208BB00BF
:101E60003908F1003808F000033070078400710869
:101E70000318710A85000008F2007208BC00792F6F
:101E80002100BA01792F033062020318482F492F2D
:101E9000402F6208F000F101F035F10D5430700769
:101EA00084009130713D8500003F2100B800013F62
:101EB000B90038088400390885000008F000F101F5
:101EC0007008BB007108BC00792F20006308F00087
:101ED000F1017108003A03196E2F402F7008013A82
:101EE0000319022F033A03190C2F013A0319432F48
:101EF000402F08002100BA170E30E2009930E100AF
:101F0000E301610886006208870081010130E10772
:101F10000030E23D0130E0006008E3070330630277
:101F2000031C932F942F812F2030F0000030F100FC
:101F30000030F200F3004030F4000030F50084314E
:101F4000A8248F313D000E172100E4016408373EBC
:101F500086000130870081016408333E860001302D
:101F6000870081010130E0006008E407043064026A
:101F7000031CBB2FBC2FA62F3F30F0000130F10017
:101F80000030F200F3000330F4000030F50084313B
:101F9000A8248F313D000E1328302100B0000030FE
:101FA000B1002030E0006008D4005408C300FF39BD
:101FB000031D0030C400200062082100E00060081A
:101FC000D9005908031DE52FE62FEB2F1030E00054
:101FD0006008D500FF2F0130DA000030DB00D93077
:101FE000DC000030DD000130DE000030DF008B312E
:101FF00009238F3120302100E0006008D50008005F
:102000000934023469340034033401340034C034F8
:10201000FA34093404340034003402340334003414
:1020200000340034093421341134013400340134D3
:1020300022345734003407340534813403344034B7
:10204000003403340734053401340334403400349D
:1020500003340934043401340034023403340034CA
:102060000034003409342134113401340034013493
:1020700022341C34003407340534823403344034B1
:1020800000346434073405340234033440340034FB
:102090000534093404340234003402340334003487
:1020A0000034003409342134113401340034013453
:1020B0002234163400340734053483340334403476
:1020C00000346434073405340334033440340034BA
:1020D00001340534013409340434A1340134173493
:1020E00001340034003480342734FF34FF34FF34AB
:1020F0007F34753420349534013405340134093487
:10210000383481340234153400342634FF3400343A
:10211000353400344634FF34003475340834953493
:102120000234053401340934303409343134813413
:1021300002340534093409340134953401347534DA
:1021400008342634FF34003415340034813402342A
:1021500095340934753408340934F0348134023448
:10216000153400342634FF3400347534013495348A
:1021700040340534013409344B3491340234C034D2
:10218000343403344D34003469340034633400345F
:10219000723400346F3400346334003468340034F3
:1021A0006934003470340034203400345434003442
:1021B0006534003463340034683400346E340034E1
:1021C0006F3400346C3400346F34003467340034BE
:1021D0007934003420340034493400346E3400340F
:1021E000633400342E340034053408340934523456
:1021F000A1340234153400342634003401347534EB
:102200000834953431340534083409344B340934F6
:102210005334093455340934543491340234C034BD
:102220001C3403344A3400346F34003479340034BD
:10223000733400347434003469340034633400344B
:102240006B340034203400344434003465340034BA
:102250006D3400346F3400340534143409340234DE
:10226000A13402341534003426340034013475347A
:10227000083495344034053414340934023491342C
:102280000234C034123401340034023400340034D7
:1022900000340834D83404345E340034013400345B
:1022A00001340234003401345A349134C03490344F
:1022B0001034913404340334093404340034903439
:020000040001F9
:08000000FF3FFF3FFF3FFF3F00
:04000E00C20F4F3F8F
:00000001FF
