:04000000803108281B
:100008007E1480317E10090080310A28BE308400B9
:100018009730850023001200C0001200C1001200B2
:10002800C2001200C3001200C4001200C500120072
:10003800C6001200C700B0308400003085002930A7
:10004800FE000030FF009731C62780312030840041
:10005800013085001030FE000030FF009731C627C0
:100068008031A0308400013085002030FE0000304F
:10007800FF009731C62780317E1020008931AA29D8
:1000880020006203031D49284A28602860081F3998
:10009800003A031D5028512860282100BA17033060
:1000A80020006106031D59285A285E282100CF0127
:1000B800CF0A60282100CF0120006208031D6528AF
:1000C8006628AA2960081F39023A031D6C286D2882
:1000D800AA2964080F39003A031973287428AA2931
:1000E80064080F392100DF0004305F0203187D28FF
:1000F8007E28AA2920305406031D83288428AA298B
:10010800BA172000E41B89288A28A32864080F3915
:100118000907A03E860001308700403F2100E40027
:10012800413FE500200064080F39AC3E86000130ED
:10013800870001082100DF005F08E300BA2864088F
:100148000F390907B03E86008701403F2100E400CF
:10015800413FE500200064080F39B03E86000130B9
:10016800870001082100DF005F08E3006318BD284D
:10017800BE28C928FB30DF00FF30E00064085F05B7
:10018800E40065086005E500CF2804306404E40055
:1001980000306504E5002000E41BD328D428E128BA
:1001A80064080F390907A03E860001308700210046
:1001B8006408C03F6508C13FEC2864080F39090787
:1001C800B03E8600870121006408C03F6508C13F32
:1001D800033020006106031DF228F3281C292100A2
:1001E8006408860065088700811FFB28FC28102901
:1001F8002000E41B00290129092964080F39AC3EB5
:100208008600013087008114102964080F39B03E38
:100218008600013087008114210064088600650883
:100228008700011564088600650887008117AA29D8
:10023800043021006406E40000306506E500640827
:10024800860065088700811F2A292B2948297F30C5
:10025800DF0064088600650887005F088105640878
:1002680086006508870001170530D9000030DA00DC
:100278006508DC006408DB000230DD000030DE00C9
:100288008A312E2280314D2964088600650887004E
:100298000117043021006406E40000306506E5001B
:1002A800E3185729582960296408860065088700DB
:1002B800811F5F2960298D292000E41B6429652995
:1002C8006D2964080F39AC3E860001308700811023
:1002D800742964080F39B03E860001308700811008
:1002E8003B302100DF0064088600650887005F084E
:1002F80081050530D9000030DA006508DC006408A3
:10030800DB000230DD000030DE008A312E22803131
:1003180095293B30DF0064088600650887005F0880
:100328008105200064080F39983E2100DF00E001B4
:100338000E30E03D5F08E1006008E200FE30DF00BB
:1003480061088600620887005F08810508002100AF
:100358005408031DB029B129C3293D008E0192011B
:10036800163091009F3097007B309200BC298E1583
:100378008E1DBF29C029BB292100D401D40A5403EA
:10038800031DC729C829D6293D008E1ACC29CD2995
:10039800D629900192011214121602302100EB00A6
:1003A8006B08D4003D00101DDA29DB29E829121D4D
:1003B800DE29DF29E829FB302100EB006B083D002E
:1003C80090058831432081313D008E1CEC29ED29B0
:1003D800F02920001211D92A101CF329F429052A22
:1003E800121CF729F829052A86315A26813104304A
:1003F8002100EB006B08D400FE30EB006B083D00D9
:100408009005101E082A092A102A121E0C2A0D2AE5
:10041800102A9731E42781313D00101F142A152A2C
:10042800422A121F182A192A292A73302100D900B2
:100438000030DA000030DB000030DC000130DD0085
:100448000030DE008A312E228131BF302100EB00DE
:100458006B083D00900588310520813121004B084B
:100468000319372A382A3A2A0130CB024B08031DD0
:100478003E2A3F2A422A8B31F72381313D00901EC4
:10048800462A472A4E2A921E4A2A4B2A4E2A893140
:10049800192181313D00901C522A532A692A921C45
:1004A800562A572A692AFF302100D9007F30DA00FE
:1004B8000030DB000030DC000130DD000030DE0001
:1004C8008A312E2281313D009301043021005402EB
:1004D80003186F2A702A732A20001211D92A3D00A6
:1004E800921D772A782AD72A2100ED013D00901D18
:1004F8007E2A7F2AD72A0F082100EB006B08D70035
:10050800570CEB00EB0C6B0C0F39EC006C08CD00B2
:10051800F730EB006B083D00900521005719952A2C
:10052800962AA62A4D08AC3E8600013087000108AD
:100538000139EB000130EB0601086B06FE396B064A
:100548008100B52A4D08B03E8600013087000108B9
:100558000139EB000130EB0601086B06FE396B062A
:1005680081004D08031DB92ABA2ABE2A8A3174228D
:100578008131CC2A7230D9000030DA00D730DB0064
:100588000030DC000030DD00DE008A312E228131AF
:1005980001302100EB006B08ED0704306D02031CED
:1005A800D62AD72A7A2A20001211080020006008CB
:1005B8001F39013A0319E12AE22AE32AF02B6408D9
:1005C8000319E72AE82AF42A64030319EC2AED2A16
:1005D800F42A023064060319F22AF32AF42AF02BCB
:1005E80006306106031DF92AFA2A962B832B21006F
:1005F8005803031D002B012B962B2000640865046B
:10060800031D072B082B152B12302100B800903042
:10061800B9000930BB000030BC00C030F0007008E1
:10062800BA00200064036504031D1B2B1C2B292B17
:1006380032302100B8009030B9000930BB000030DA
:10064800BC00C030F0007008BA0002302000640618
:100658006504031D302B312B962B52302100B80036
:100668009030B9000930BB000030BC00C030F00049
:100678007008BA00962B21005803031D442B452B04
:10068800962B200064086504031D4B2B4C2B592B1B
:1006980069302100B8009030B9005730BB000030F5
:1006A800BC00C030F0007008BA0020006403650484
:1006B800031D5F2B602B6D2BF4302100B8009030A8
:1006C800B9001C30BB000030BC00C030F00070081E
:1006D800BA000230200064066504031D742B752BD4
:1006E800962B00302100B8009830B9001C30BB00B0
:1006F8000030BC00C030F0007008BA00962B6308C8
:10070800F000F1017108003A03198B2B962B700841
:10071800213A0319FB2A033A03193F2B013A03191B
:10072800962B962B2000600E890C0339013A031989
:100738009E2B9F2BD42BF02BD6302100B8000030F5
:10074800B9000130BB000030BC00C130F0007008B7
:10075800BA00F02B8030F00070082100BA002000A9
:100768006308F00070082100D600F02BD530210076
:10077800B8000030B9000130BB000030BC00813047
:10078800F0007008BA00F02B8030F00070082100EB
:10079800BA0020006208F00070082100D500F02B94
:1007A8006108F000F1017108003A0319DC2BF02B05
:1007B8007008013A0319F02B033A0319A02B013AE8
:1007C8000319BA2B0A3A0319F02B033A0319AE2B73
:1007D800013A0319C82BF02B0800203021005402DD
:1007E8000318F72BF82BF92BC92C3D008E1CFD2B79
:1007F800FE2BFF2BC92C21003F0840040319052CB0
:10080800062C0E2C3F08860040088700811B0D2C03
:100818000E2C512C22002C08031D132C142C512CA7
:10082800B0308600213087000108FB007B082100DA
:10083800A000B03086002130870041310108FB005C
:100848007B08A100A20124001508FB007B082100F9
:10085800A30024001408FB007B082100A400EF304B
:100868008600213087000108FB007B08A5002200D4
:10087800AC01AC0AF001F00AA030F1000030F2003F
:100888001030FB007B08F30001308E31DD26833108
:1008980071082100C0007008BF0023003A083B041B
:1008A8000319572C582C602C3A0886003B088700FF
:1008B800811B5F2C602C792C22002B080319652CD6
:1008C800662C792CAB01F0013030F1000130F200D8
:1008D8004030FB007B08F30001308E31DD26833188
:1008E80071082300BB007008BA00230036083704DB
:1008F80003197F2C802C882C36088600370887003F
:10090800811B872C882CA12C2100440803198D2CCD
:100918008E2CA12CC401F001B030F1002130F2007E
:100928004030FB007B08F30003308E31DD26833135
:1009380071082300B7007008B6002300380839048E
:100948000319A72CA82CB02C380886003908870072
:10095800811BAF2CB02CC92C22002D080319B52CF3
:10096800B62CC92CAD01F0013030F1002130F20075
:100978003130FB007B08F30002308E31DD268331F5
:1009880071082300B9007008B80008007108FD005C
:100998007008FC0074087504031DD32CD42CD52CC6
:1009A800932D7C0886007D088700720881007408F2
:1009B8007C07F60075087D3DF7007608FF3EF800D5
:1009C800FF30773DF90078088600790887007208BB
:1009D8008100003075020330031974020318F52CE6
:1009E800F62CF72C932D7C08013EF60000307D3D57
:1009F800F7007608860077088700720881007C086F
:100A0800023EF60000307D3DF70076088600770844
:100A180087007208810074087C07F60075087D3D20
:100A2800F7007608FE3EF800FF30773DF9007808B9
:100A38008600790887007208810074087C07F60030
:100A480075087D3DF7007608FD3EF800FF30773DDC
:100A5800F90078088600790887007208810000305C
:100A6800750207300319740203183B2D3C2D3D2DE8
:100A7800932D7C08033EF60000307D3DF700760894
:100A88008600770887007208810074087C07F600E2
:100A980075087D3DF7007608FC3EF800FF30773D8D
:100AA800F90078088600790887007208810000300C
:100AB80075020930031974020318632D642D652D1E
:100AC800932D7C09F6007D09F700F60A0319F70A49
:100AD80003307605FA0000307705FB007A08FC073A
:100AE8007B08FD3D7A08F4027B08F53BFC30F405F1
:100AF800FF30F5058D2D7C0886007D08870072087B
:100B080081000130F4020030F53B0130FC07003071
:100B1800FD3D74087504031D922D932D7F2D08004B
:100B28002100C3013F08400403199B2D9C2DA42DCF
:100B38003F08860040088700811BA32DA42DA62D01
:100B4800C301C30A24001108F00070082200A9009C
:100B5800240015132400141C1E32141C1C32141CEF
:100B68001A32141C1832141C1632141C1432141C99
:100B78001232141C1032141C0E32141C0C32141CA9
:100B88000A32141C0832141C0632141C0432141CB9
:100B98000232141C003200002400141CD42DD52D60
:100BA800552E55301106031DDA2DDB2D552E7630C6
:100BB8009100E02D9513DB2D951BE32DE42DDE2D03
:100BC800141CE72DE82DE42D55301106031DED2DDD
:100BD800EE2D592E2100430824009100141CFE33E9
:100BE80024001108F00070082200A80024009101D8
:100BF800141CFE3324001108F00070082200A7001E
:100C08002100431C082E092E552E2200AC0150301D
:100C18008400203085002400141CFE3311081A00BB
:100C2800141CFE3311081A00141CFE3311081A0094
:100C3800141CFE3311081A00141CFE3311081A0084
:100C4800141CFE3311081A00141CFE3311081A0074
:100C5800141CFE3311081A00141CFE3311081A0064
:100C6800141CFE3311081A00141CFE3311081A0054
:100C7800141CFE3311081A00141CFE3311081A0044
:100C8800141CFE3311081A00141CFE3311081A0034
:100C9800141CFE3311081A00141CFE33110824001A
:100CA80091012400910195131513080021001211D8
:100CB8003D009301900198010E30F2009930F10047
:100CC800F301710886007208870081010130F1077D
:100CD8000030F23D0130F0007008F3070330730272
:100CE800031C772E782E652E16303D0091009F301C
:100CF80097007B309200F4017408F0000130F03561
:100D0800FF3E031D832E7035203E8600870100308C
:100D1800C03F0030C13FC23FC33F0130F000700800
:100D2800F40710307402031C9A2E9B2E802E3D006F
:100D38000E1796010E120E13F730F000700890058A
:100D48002100BA012200A201A301A4013D009019CB
:100D5800AE2EAF2EA02E0130F00070082100C90081
:100D68000130F0007008C800C701C601CE01F401C7
:100D78007435B03E860087010030C03FC13F7435EE
:100D8800A03E8600013087000030C03FC13F740894
:100D9800B03E86000130870081017408AC3E8600B1
:100DA8000130870081010130F0007008F407043039
:100DB8007402031CE02EE12EBC2E28302100B00066
:100DC8000030B10016303D00980000302000A3002C
:100DD8006030A2000830A1000430F0007008A000C4
:100DE800A0172100D80100302300AB000030AA0072
:100DF8000030A9000030A8002100C501D401080076
:100E08002100530886008701413FF5007508F2006C
:100E1800F301730822002402031D142F7208230211
:100E28000318172F182F1C2F2308F2007208F5003B
:100E38007508F200F3017208A3027308A43BF401D9
:100E4800382F7408683E860087010108F2002008E0
:100E580086008701720881000130F2007208A0073D
:100E68000130F2007208F40775087402031C3D2F64
:100E78003E2F252F230824040319432F442F7D2FA9
:100E880021004108013EF2000030423DF3007208A3
:100E9800860073088700083081006830F20000304F
:100EA800F300410886004208870042317208C03FBB
:100EB8007308C13F530886008701011B642F652F03
:100EC800712F410886004208870048308100410898
:100ED8008600420887008117AD2F41088600420826
:100EE8008700083081004108860042088700811782
:100EF800AD2F21004108013EF2000030423DF300D1
:100F08007208860073088700083081006030F2009C
:100F18000030F30041088600420887004231720819
:100F2800C03F7308C13F410886004208870004306B
:100F38008100410886004208870081172200A21319
:100F480021004A08031DA92FAA2FAD2F8B31F723A3
:100F5800873108002100D201CA01C701C601CC01AE
:100F6800D1017F30E8003008860031088700680822
:100F7800810504303006B00000303106B1007F3002
:100F8800E8003008860031088700680881050430C9
:100F98003006B00000303106B1007F30E80041086B
:100FA80086004208870068088105BA01BB01BC01B8
:100FB8002200A201A301A4018D31562587310330F7
:100FC8002100D9000030DA000030DB000030DC00FE
:100FD8000030DD00DE008A312E2287318F31642710
:100FE8008731080021008E150E144030240094002B
:060FF80024309500080002
:10100A0001302300A8070030A93D0030AA3D003076
:10101A00AB3D21004E08031D132814282128013056
:10102A00F0007008C5074508031D1C281D28212843
:10103A00FF30F0007008C5000800F50023008E019B
:10104A002F2801308831A820883101309731D227E2
:10105A00883142287508F300F4017408003A03192C
:10106A00372842287308003A03192628013A031937
:10107A004228033A03194228422808002100CE01D7
:10108A007430D9000030DA000030DB000030DC00B8
:10109A000030DD00DE008A312E2288313D008E10BC
:1010AA0012115D28FB302100DF005F083D0090052A
:1010BA0010196028612857282100C5010800F2008C
:1010CA006F2822000E12852822008E108528220001
:1010DA000E1185287208F000F1017108003A03190F
:1010EA00772885287008003A03198528013A0319D8
:1010FA006628033A03196928013A03196C288528D6
:10110A000800F200912822000E16A72822008E1449
:10111A00A72822000E15A7287208F000F10171080D
:10112A00003A03199928A7287008003A0319A72832
:10113A00013A03198828033A03198B28013A03193B
:10114A008E28A7280800F200B32821000E12C92809
:10115A0021008E10C92821000E11C9287208F0003A
:10116A00F1017108003A0319BB28C9287008003A2E
:10117A000319C928013A0319AA28033A0319AD2801
:10118A00013A0319B028C9280800FC00771DCE28A7
:10119A00CF28D428F0017C088931EB218831F71C4B
:1011AA00D728D828DE28F001F00A7C088931EB21FB
:1011BA0088317C08983EF800F9010E30F93D78082C
:1011CA00FA007908FB007A0886007B08870077080E
:1011DA00810008002100BF01C0012300BA01BB0140
:1011EA00B801B901B601B7012100C4012200AD015D
:1011FA00AC01AC0AAB011E30FD007D08F7000130DE
:10120A008831CA2088311E30FD007D08F70002307F
:10121A008831CA2088311E30FD007D08F70003306E
:10122A008831CA20883108003D00181C1D291E2952
:10123A003F29210053088600870180300106031DDB
:10124A00272928293D29300886003108870084305B
:10125A000106031D312932293D290C30F0005308BB
:10126A00860087017008810053088600870181176C
:10127A003D001810DF30F000700890050800F800F3
:10128A007108F6007008F5007808F4007408F9008F
:10129A00652975088600760887000108F400740835
:1012AA00F7000130F5070030F63D7708F4007908B9
:1012BA0086008701740881000130F4007408F90778
:1012CA000130F2020030F33B720A031D7029730ADF
:1012DA00031D702971294E29080002302100510688
:1012EA00031D782979297D29873104278931A9297C
:1012FA00D1014C08031D82298329A8294108013EEE
:10130A00F6000030423DF70076088600770887002D
:10131A00083081006030F6000030F700410886008E
:10132A004208870042317608C03F7708C13F41082A
:10133A008600420887000C30810041088600420876
:10134A0087008117A929CC01080021008E140E11EB
:10135A000D302100EF002D30EE00D730890BB32974
:10136A00EE0BB329EF0BB32900328731F627893107
:10137A0086315A26893121000E1285319425893108
:10138A00031022000E1E03140318CC29CF292200B1
:10139A000E16D12922000E128131AB2189318131F9
:1013AA00AB2189312030210054020318DD29DE29BE
:1013BA00DF29C2293D008E1CE329E429E529C22937
:1013CA008331F1238931C22980310828F500203080
:1013DA00F1007108F6007008F1000130F135890B4F
:1013EA00F3297508F2000130F235FF3E031DF92991
:1013FA0072357107F3000130F335FF3E031D012AF0
:10140A007335F4007408F60776088600870181139D
:10141A007008031D112A122A1C2A7535A03E86005F
:10142A00013087007608C03F0030C13F242A753555
:10143A00B03E860087017608C03F0030C13F76087B
:10144A008600870101137608043E8600870101178A
:10145A0008004B2A8B3127238A31732A8B312723A1
:10146A008A310130883122208A31732A8B3127232D
:10147A008A310230883122208A31732A8831EF205A
:10148A008A31732A8231DA228A31732A21005A0870
:10149A00003A0319542A7F3A03196E2A732A590803
:1014AA00013A0319432A033A0319732A013A031921
:1014BA00472A063A0319732A773A0319732A013A13
:1014CA0003192F2A073A03193B2A013A0319332A27
:1014DA00732A5908FF3A0319732A732A08002D3010
:1014EA002100E9006908CB005708FD39031D7E2A4F
:1014FA007F2ABB2A57363F39E9000130E935FF3EDA
:10150A00031D832A6935203EEA006A08D30053087E
:10151A00C100FF39031D0030C20004304106C1007A
:10152A0000304206C200530886008701010C890C6C
:10153A000F390D3A031DA22AA32AB72A5308023EDD
:10154A0086008701403FF000413FF1000830F20079
:10155A000030F3006030893144218A318731AE2767
:10156A008A31C72A893172218A31C72AFD30570543
:10157A00E90004306906031DC32AC42AC72A8C312C
:10158A00DE248A3108002100C701C6010230510653
:10159A00031DD02AD12AF62A4108013EF300003061
:1015AA00423DF40073088600740887000830810001
:1015BA006830F3000030F4004108860042088700D2
:1015CA0042317308C03F7408C13F4108860042088F
:1015DA008700483081004108860042088700811749
:1015EA00262B3C0820006702031DFF2A21003B0826
:1015FA00200066020318022B032B0A2B670821001E
:10160A00BC00200066082100BB008C3169248A31A5
:10161A006830F3000030F4002100300886003108F9
:10162A00870042317308C03F7408C13F3008860002
:10163A003108870048308100300886003108870069
:10164A00811708003D008E1C2B2B2C2B762B01308A
:10165A00883164208B31892B3D033E04031D362BD0
:10166A00372B3C2B0130883186208B31842B4B3031
:10167A003D063E04031D422B432B482B0130883183
:10168A0064208B31842B00303E02973003193D02CF
:10169A00031C502B512B542BBD01BE01842B842BD0
:1016AA003D033E04031D5A2B5B2B602B013088310E
:1016BA0086208B31842B32303D063E04031D662B77
:1016CA00672B6C2B0130883164208B31842B0330DB
:1016DA003E02B73003193D02031C742B752B842B71
:1016EA00512B21005408F300F4017408003A03193D
:1016FA007F2B552B7308203A0319312B552B0130B8
:10170A002100BD070030BE3D08002000E801E901C4
:10171A00D42B2100BA174F03031D942B952BE82BCA
:10172A002000E814E82B2100BA17E82B2100BA1789
:10173A00200064080F39003A0319A42BA52BE82BC3
:10174A00E41BA82BA92BB52B64080F390907A03E67
:10175A00860001308700403FF200413FF300BF2B73
:10176A0064080F390907B03E86008701403FF2003E
:10177A00413FF3007208860073088700811FC62B59
:10178A00C72BE82B7208860073088700011DCE2B31
:10179A00CF2BE82B0130F0007008E800E82B600836
:1017AA001F39F000F1017108003A0319DD2BE82B0B
:1017BA007008003A03198E2B013A0319982B033A41
:1017CA0003199B2BE82B2100BA1FEC2BED2BF62BD0
:1017DA006830B8000030B9003A140230F0007008DE
:1017EA00BB00080021004908031DFC2BFD2B682CB7
:1017FA000130F0007008C9004808031D052C062CAA
:10180A00682C0130F0007008C80002305106031D30
:10181A000F2C102C222C3008860031088700413109
:10182A00810130088600310887004830810030087D
:10183A008600310887008117682C5103031D262C66
:10184A00272C682CCC010830F000530A8600870147
:10185A00700881006030F0000030F1005308023E49
:10186A00860087017008C03F7108C13F0430F0004C
:10187A005308860087017008810053088600870193
:10188A008117CC01CC0A4108013EF0000030423DEC
:10189A00F100700886007108870008308100603006
:1018AA00F0000030F100410886004208870042310A
:1018BA007008C03F7108C13F41088600420887008E
:1018CA0080308100682C08000830F0007008F200AF
:1018DA00003021003C02083003193B020318762C21
:1018EA00772C8C2C3B08F0007008F2005208031D7C
:1018FA007F2C802C832CD201D20A8C2C5203031DFC
:10190A00872C882C8C2C0230F0007008D2007208C8
:10191A00F000F1017008BB027108BC3B3008013EBF
:10192A00F0000030313DF100700886007108870030
:10193A00720881006830F0007008D0003A18A62CAE
:10194A00A72CD82CBD2C380884003908850000083B
:10195A00F000500886008701700881000130B8073E
:10196A000030B93D0130F0007008D0070130F202B2
:10197A007208031DC12CC22CA82CDD2C3808840047
:10198A00390885000008F0005008860087017008B1
:10199A0081000130B8070030B93D0130F00070080D
:1019AA00D0070130F2027208031DDC2CDD2CC32C97
:1019BA000800210030088600310887000030011B2A
:1019CA000130F50004303006B00000303106B100B5
:1019DA0008305406031DF22CF32C082D200062084F
:1019EA007F393D00960016080319FC2CFD2C032DA7
:1019FA001030F30073082100D400082D0430F300DE
:101A0A0073082100D4005103031D0C2D0D2D4D2DFB
:101A1A006830F3000030F40030088600310887008F
:101A2A0042317308C03F7408C13F8C3169248C313C
:101A3A00023021005206031D232D242D302D30089B
:101A4A00860031088700043081003008860031089A
:101A5A0087008117552D7508031D342D352D412D0D
:101A6A003008860031088700483081003008860037
:101A7A00310887008117552D300886003108870004
:101A8A000830810030088600310887008117552DFB
:101A9A002200A21F512D522D532DA2132100D10134
:101AAA0008002000600E890C0339003A03195E2DE4
:101ABA005F2DA52DD12DBA170830E6006608D4008F
:101ACA00D12D8D31D2258D31D12D8E3157268D31A3
:101ADA00D12DD830B8000030B9003A14BB01BB0A86
:101AEA00BA17D12D8B318A238D31D12D80314420E3
:101AFA008D31D12D20006408BD3E2100B80001308F
:101B0A00B900722DBA17200062082100E6002000F1
:101B1A006408BD3E86000130870021006608810006
:101B2A00D12D0230D9000030DA000030DB0000305D
:101B3A00DC000030DD00DE008A312E228D31D12D0D
:101B4A0061082100E600E7016708003A0319AE2D93
:101B5A00D12D6608003A0319772D013A03197B2D16
:101B6A00023A03197B2D063A0319602D033A031929
:101B7A00662D013A0319962D0F3A03196E2D013A73
:101B8A0003196A2D033A03197F2D013A0319872D88
:101B9A00073A0319D12DD12D0800803020006006A4
:101BAA00031DD82DD92D562EC030F0007008210003
:101BBA00BA00422E16302100B8009830B90012300F
:101BCA00BB000030BC00562E6208031DED2DEE2D21
:101BDA001D2E6208F000F101F035F10D3230700768
:101BEA0084009830713D8500003F2100B800013F14
:101BFA00B9003908F1003808F00002307007840093
:101C0A0071080318710A85000008F2007208BB0007
:101C1A003908F1003808F0000330700784007108B1
:101C2A000318710A85000008F2007208BC00562EDB
:101C3A002100BA01562E033062020318252E262EE1
:101C4A001D2E6208F000F101F035F10D2830700701
:101C5A0084009830713D8500003F2100B800013FA3
:101C6A00B90038088400390885000008F000F1013D
:101C7A007008BB007108BC00562E20006308F000F3
:101C8A00F1017108003A03194B2E1D2E7008013A12
:101C9A000319DF2D033A0319E92D013A0319202EFE
:101CAA001D2E08002100BA170E30E1009930E0001D
:101CBA00E201600886006108870081010130E007BF
:101CCA000030E13D0130DF005F08E20703306202C5
:101CDA00031C702E712E5E2E2030F0000030F100B1
:101CEA000030F200F3004030F4000030F500843197
:101CFA00CA248E313D000E172100E3016308B03E6D
:101D0A0086000130870081016308AC3E86000130FD
:101D1A00870081010130DF005F08E30704306302B6
:101D2A00031C982E992E832EBD30F0000130F1004D
:101D3A000030F200F3000330F4000030F500843183
:101D4A00CA248E313D000E1328302100B000003025
:101D5A00B1002030DF005F08D3005308C100FF390B
:101D6A00031D0030C200200062082100DF005F0866
:101D7A00D8005808031DC22EC32EC82E1030DF000B
:101D8A005F08D400DC2E0130D9000030DA00D830E8
:101D9A00DB000030DC000130DD000030DE008A317B
:101DAA002E228E3120302100DF005F08D400080087
:101DBA00F80070080319E22EE32EEC2E7835B03EB7
:101DCA0086008701403FF900413FFA00F52E783539
:101DDA00A03E860001308700403FF900413FFA00EB
:101DEA0079087A04031DFA2EFB2EFE2EF001F1016A
:101DFA00632FFF307105F4007F307205F500790812
:101E0A0086007A08870042317408C03F7508C13FCE
:101E1A007908013EF40000307A3DF5007408860026
:101E2A0075088700730881004030F400790886003D
:101E3A007A08870074088105790886007A0887007D
:101E4A008115790886007A088700811770080319B6
:101E5A002F2F302F472F7835B03E86008701403F1D
:101E6A00F400413FF50004307406F60000307506B0
:101E7A00F7007835B03E860087017608C03F7708BC
:101E8A00C13F5F2F7835A03E860001308700403F72
:101E9A00F400413FF50004307406F6000030750680
:101EAA00F7007835A03E8600013087007608C03FEB
:101EBA007708C13F7A08F1007908F00008003D0070
:101ECA000E122100BA1B6A2F6B2FB22F2200A21FFB
:101EDA006F2F702F812F0230F50075082100D10075
:101EEA004608031D792F7A2F7D2F8A31C8228F3118
:101EFA002100C801C901FF2F21004108013EF50058
:101F0A000030423DF60075088600760887000830E2
:101F1A0081006030F5000030F60041088600420872
:101F2A00870042317508C03F7608C13F41088600E4
:101F3A00420887000C308100410886004208870069
:101F4A008117300886003108870004308100300884
:101F5A008600310887008117FF2F2000E01FB62F67
:101F6A00B72FCE2F2100D101D10A4708031DBE2F5A
:101F7A00BF2FC22F8A31C8228F312100C801C9015F
:101F8A004A08031DC92FCA2FFF2F8B31F7238F3120
:101F9A00FF2F0230F50075082100D1004108013EEB
:101FAA00F5000030423DF600750886007608870085
:101FBA00083081006030F5000030F60041088600E4
:101FCA004208870042317508C03F7608C13F410880
:101FDA0086004208870004308100410886004208D2
:101FEA0087008117C801C9014A08031DFD2FFE2F6A
:101FFA00FF2FCA2F0800093402346934003403342D
:10200A0001340034C034FA3409340434003400345E
:10201A0002340334003400340034093421341134D6
:10202A00013400340134223457340034073405347F
:10203A008134033440340034033407340534013422
:10204A000334403400340334093404340134003492
:10205A000234033400340034003409342134113496
:10206A0001340034013422341C340034073405347A
:10207A00823403344034003464340734053402347F
:10208A00033440340034053409340434023400344F
:10209A000234033400340034003409342134113456
:1020AA000134003401342234163400340734053440
:1020BA00833403344034003464340734053403343D
:1020CA00033440340034013405340134093404340F
:1020DA00A1340134173401340034003480342734F5
:1020EA00FF34FF34FF347F3475342034953401349F
:1020FA000534013409343834813402341534003457
:10210A002634FF340034353400344634FF34003486
:10211A0075340834953402340534013409343034C2
:10212A000934313481340234053409340934013430
:10213A0095340134753408342634FF3400341534A8
:10214A00003481340234953409347534083409343E
:10215A00F03481340234153400342634FF34003428
:10216A0075340134953440340534013409344B3420
:10217A0091340234C034343403344D340034693475
:10218A00003463340034723400346F3400346334FE
:10219A000034683400346934003470340034203434
:1021AA000034543400346534003463340034683401
:1021BA0000346E3400346F3400346C3400346F34BD
:1021CA00003467340034793400342034003449341C
:1021DA0000346E340034633400342E340034053451
:1021EA00083409345234A134023415340034263404
:1021FA0000340134753408349534313405340834E4
:10220A0009344B34093453340934553409345434B9
:10221A0091340234C0341C3403344A3400346F34E9
:10222A00003479340034733400347434003469343B
:10223A000034633400346B340034203400344434C2
:0E224A000034653400346D3400346F340034D9
:102F7C004134423443344434453446344734483481
:102F8C006400800101310130FE020030FF3B7F08FC
:102F9C007E04031DC72F0034F2007208F000F1010B
:102FAC007108003A0319DB2FE32F7008003A03195C
:102FBC00E32F013A0319E32FE32F08003D0012150C
:102FCC00EF302100DF005F083D0090058E142100DA
:102FDC00CE01CE0AC5017530D9000030DA000030C0
:102FEC00DB000030DC000030DD00DE008A312E22F8
:102FFC00973108000534143409340234A1340234F6
:10300C0015340034263400340134753408349534C6
:10301C004034053414340934023491340234C0344D
:10302C0012340134003402340034003400340834D7
:10303C00D83404345E3400340134003401340234A6
:10304C00003401342E349834C0349034103491341C
:0C305C000434033409340434003490348C
:020000040001F9
:08000000FF3FFF3FFF3FFF3F00
:04000E00C20F4F3F8F
:00000001FF
